{"abi":[{"inputs":[{"internalType":"contract CErc20","name":"_ctoken","type":"address"},{"internalType":"uint256","name":"_expiry_block","type":"uint256"}],"stateMutability":"nonpayable","type":"constructor"},{"inputs":[],"name":"BadToken","type":"error"},{"inputs":[],"name":"NoFallback","type":"error"},{"inputs":[],"name":"NoReceive","type":"error"},{"anonymous":false,"inputs":[{"indexed":true,"internalType":"address","name":"_from","type":"address"},{"indexed":false,"internalType":"address","name":"_deposited_token","type":"address"},{"indexed":false,"internalType":"uint256","name":"_deposited_value","type":"uint256"},{"indexed":false,"internalType":"uint256","name":"_reserve_value","type":"uint256"},{"indexed":false,"internalType":"uint256","name":"_rate","type":"uint256"}],"name":"Deposit","type":"event"},{"anonymous":false,"inputs":[{"indexed":true,"internalType":"address","name":"previousOwner","type":"address"},{"indexed":true,"internalType":"address","name":"newOwner","type":"address"}],"name":"OwnershipTransferred","type":"event"},{"anonymous":false,"inputs":[{"indexed":false,"internalType":"uint256","name":"_rate","type":"uint256"}],"name":"Settle","type":"event"},{"anonymous":false,"inputs":[{"indexed":true,"internalType":"address","name":"_from","type":"address"},{"indexed":false,"internalType":"address","name":"_withdrawn_token","type":"address"},{"indexed":false,"internalType":"uint256","name":"_withdrawn_value","type":"uint256"},{"indexed":false,"internalType":"uint256","name":"_reserve_value","type":"uint256"},{"indexed":false,"internalType":"uint256","name":"_rate","type":"uint256"}],"name":"Withdrawal","type":"event"},{"stateMutability":"payable","type":"fallback"},{"inputs":[],"name":"MARGIN_RATE_DIV","outputs":[{"internalType":"int256","name":"","type":"int256"}],"stateMutability":"view","type":"function"},{"inputs":[],"name":"MARGIN_RATE_MUL","outputs":[{"internalType":"int256","name":"","type":"int256"}],"stateMutability":"view","type":"function"},{"inputs":[],"name":"askPrice","outputs":[{"internalType":"uint256","name":"","type":"uint256"}],"stateMutability":"nonpayable","type":"function"},{"inputs":[],"name":"askSize","outputs":[{"internalType":"uint256","name":"","type":"uint256"}],"stateMutability":"nonpayable","type":"function"},{"inputs":[{"internalType":"address","name":"depositor","type":"address"}],"name":"balanceOf","outputs":[{"internalType":"uint256","name":"","type":"uint256"}],"stateMutability":"view","type":"function"},{"inputs":[],"name":"bidPrice","outputs":[{"internalType":"uint256","name":"","type":"uint256"}],"stateMutability":"nonpayable","type":"function"},{"inputs":[],"name":"bidSize","outputs":[{"internalType":"uint256","name":"","type":"uint256"}],"stateMutability":"nonpayable","type":"function"},{"inputs":[],"name":"blocksToExpiry","outputs":[{"internalType":"uint256","name":"","type":"uint256"}],"stateMutability":"nonpayable","type":"function"},{"inputs":[{"internalType":"uint256","name":"size","type":"uint256"},{"internalType":"uint256","name":"limit","type":"uint256"}],"name":"closeShort","outputs":[],"stateMutability":"nonpayable","type":"function"},{"inputs":[],"name":"ctoken","outputs":[{"internalType":"contract CErc20","name":"","type":"address"}],"stateMutability":"view","type":"function"},{"inputs":[{"internalType":"uint256","name":"amount","type":"uint256"},{"internalType":"address","name":"token_","type":"address"}],"name":"deposit","outputs":[],"stateMutability":"nonpayable","type":"function"},{"inputs":[],"name":"depositors","outputs":[{"internalType":"uint256","name":"","type":"uint256"}],"stateMutability":"view","type":"function"},{"inputs":[{"internalType":"address","name":"","type":"address"}],"name":"entries","outputs":[{"internalType":"uint256","name":"balance","type":"uint256"},{"internalType":"int256","name":"size","type":"int256"},{"internalType":"uint256","name":"price","type":"uint256"}],"stateMutability":"view","type":"function"},{"inputs":[],"name":"expire","outputs":[{"internalType":"bool","name":"","type":"bool"}],"stateMutability":"nonpayable","type":"function"},{"inputs":[],"name":"expiry_block","outputs":[{"internalType":"uint256","name":"","type":"uint256"}],"stateMutability":"view","type":"function"},{"inputs":[],"name":"fairValue","outputs":[{"internalType":"uint256","name":"","type":"uint256"}],"stateMutability":"nonpayable","type":"function"},{"inputs":[],"name":"fixing","outputs":[{"internalType":"uint256","name":"","type":"uint256"}],"stateMutability":"view","type":"function"},{"inputs":[],"name":"fixing_block","outputs":[{"internalType":"uint256","name":"","type":"uint256"}],"stateMutability":"view","type":"function"},{"inputs":[],"name":"fullQuote","outputs":[{"internalType":"uint256","name":"","type":"uint256"},{"internalType":"uint256","name":"","type":"uint256"},{"internalType":"uint256","name":"","type":"uint256"},{"internalType":"uint256","name":"","type":"uint256"}],"stateMutability":"nonpayable","type":"function"},{"inputs":[],"name":"m_ask_price","outputs":[{"internalType":"uint256","name":"","type":"uint256"}],"stateMutability":"view","type":"function"},{"inputs":[],"name":"m_ask_size","outputs":[{"internalType":"uint256","name":"","type":"uint256"}],"stateMutability":"view","type":"function"},{"inputs":[],"name":"m_bid_price","outputs":[{"internalType":"uint256","name":"","type":"uint256"}],"stateMutability":"view","type":"function"},{"inputs":[],"name":"m_bid_size","outputs":[{"internalType":"uint256","name":"","type":"uint256"}],"stateMutability":"view","type":"function"},{"inputs":[],"name":"m_deposited","outputs":[{"internalType":"uint256","name":"","type":"uint256"}],"stateMutability":"view","type":"function"},{"inputs":[],"name":"m_pnl_depositors","outputs":[{"internalType":"int256","name":"","type":"int256"}],"stateMutability":"view","type":"function"},{"inputs":[],"name":"m_pos_bought","outputs":[{"internalType":"uint256","name":"","type":"uint256"}],"stateMutability":"view","type":"function"},{"inputs":[],"name":"m_pos_sold","outputs":[{"internalType":"uint256","name":"","type":"uint256"}],"stateMutability":"view","type":"function"},{"inputs":[],"name":"m_val_bought","outputs":[{"internalType":"uint256","name":"","type":"uint256"}],"stateMutability":"view","type":"function"},{"inputs":[],"name":"m_val_sold","outputs":[{"internalType":"uint256","name":"","type":"uint256"}],"stateMutability":"view","type":"function"},{"inputs":[],"name":"m_withdrawn","outputs":[{"internalType":"uint256","name":"","type":"uint256"}],"stateMutability":"view","type":"function"},{"inputs":[{"internalType":"uint256","name":"size","type":"uint256"},{"internalType":"uint256","name":"limit","type":"uint256"}],"name":"openShort","outputs":[],"stateMutability":"nonpayable","type":"function"},{"inputs":[],"name":"owner","outputs":[{"internalType":"address","name":"","type":"address"}],"stateMutability":"view","type":"function"},{"inputs":[],"name":"renounceOwnership","outputs":[],"stateMutability":"nonpayable","type":"function"},{"inputs":[{"components":[{"internalType":"uint256","name":"balance","type":"uint256"},{"internalType":"int256","name":"size","type":"int256"},{"internalType":"uint256","name":"price","type":"uint256"}],"internalType":"struct IrsAgent.Entry","name":"entry","type":"tuple"},{"internalType":"uint256","name":"mark","type":"uint256"},{"internalType":"uint256","name":"rate","type":"uint256"}],"name":"requiredMargin","outputs":[{"internalType":"uint256","name":"","type":"uint256"}],"stateMutability":"pure","type":"function"},{"inputs":[],"name":"reserves","outputs":[{"internalType":"uint256","name":"","type":"uint256"}],"stateMutability":"view","type":"function"},{"inputs":[{"internalType":"uint256","name":"bid_price","type":"uint256"},{"internalType":"uint256","name":"bid_size","type":"uint256"},{"internalType":"uint256","name":"ask_price","type":"uint256"},{"internalType":"uint256","name":"ask_size","type":"uint256"}],"name":"setQuote","outputs":[],"stateMutability":"nonpayable","type":"function"},{"inputs":[{"internalType":"uint256","name":"bid_size","type":"uint256"},{"internalType":"uint256","name":"ask_size","type":"uint256"},{"internalType":"uint256","name":"current_bid_size","type":"uint256"},{"internalType":"uint256","name":"current_ask_size","type":"uint256"}],"name":"setQuoteSize","outputs":[],"stateMutability":"nonpayable","type":"function"},{"inputs":[],"name":"settle","outputs":[],"stateMutability":"nonpayable","type":"function"},{"inputs":[],"name":"token","outputs":[{"internalType":"contract IERC20","name":"","type":"address"}],"stateMutability":"view","type":"function"},{"inputs":[{"internalType":"address","name":"newOwner","type":"address"}],"name":"transferOwnership","outputs":[],"stateMutability":"nonpayable","type":"function"},{"inputs":[{"internalType":"uint256","name":"amount","type":"uint256"},{"internalType":"address","name":"token_","type":"address"}],"name":"withdraw","outputs":[],"stateMutability":"nonpayable","type":"function"},{"inputs":[{"internalType":"uint256","name":"amount","type":"uint256"}],"name":"withdrawWrapped","outputs":[],"stateMutability":"nonpayable","type":"function"},{"stateMutability":"payable","type":"receive"}],"bytecode":"60806040523480156200001157600080fd5b50604051620030e4380380620030e48339810160408190526200003491620003b9565b600080546001600160a01b031916339081178255604051909182917f8be0079c531659141344cd1fd0a4f28419497f9722a3daafe3b4186f6b6457e0908290a3506001600160a01b038216620000d15760405162461bcd60e51b815260206004820152601560248201527f63746f6b656e2063616e6e6f74206265206e756c6c000000000000000000000060448201526064015b60405180910390fd5b438111620001225760405162461bcd60e51b815260206004820152601e60248201527f65787069727920626c6f636b206d75737420626520696e2066757475726500006044820152606401620000c8565b6000826001600160a01b0316636f307dc36040518163ffffffff1660e01b815260040160206040518083038186803b1580156200015e57600080fd5b505afa15801562000173573d6000803e3d6000fd5b505050506040513d601f19601f8201168201806040525081019062000199919062000371565b600280546001600160a01b038681166001600160a01b031992831617909255600180548484169216919091179055600384905560008054929350911660405163095ea7b360e01b81526001600160a01b03808316600483015260001960248301529192509083169063095ea7b390604401602060405180830381600087803b1580156200022557600080fd5b505af11580156200023a573d6000803e3d6000fd5b505050506040513d601f19601f8201168201806040525081019062000260919062000397565b620002a05760405162461bcd60e51b815260206004820152600f60248201526e617070726f7665206661696c75726560881b6044820152606401620000c8565b60405163095ea7b360e01b81526001600160a01b038281166004830152600019602483015285169063095ea7b390604401602060405180830381600087803b158015620002ec57600080fd5b505af115801562000301573d6000803e3d6000fd5b505050506040513d601f19601f8201168201806040525081019062000327919062000397565b620003675760405162461bcd60e51b815260206004820152600f60248201526e617070726f7665206661696c75726560881b6044820152606401620000c8565b5050505062000402565b60006020828403121562000383578081fd5b81516200039081620003e9565b9392505050565b600060208284031215620003a9578081fd5b8151801515811462000390578182fd5b60008060408385031215620003cc578081fd5b8251620003d981620003e9565b6020939093015192949293505050565b6001600160a01b0381168114620003ff57600080fd5b50565b612cd280620004126000396000f3fe6080604052600436106102545760003560e01c8063813564de11610139578063ce74228a116100b6578063eff3d7501161007a578063eff3d75014610666578063f094099014610686578063f29ee1251461069c578063f2fde38b146106f3578063f69d91ae14610713578063fc0c546a1461073357610272565b8063ce74228a146105f9578063db1155ec1461060f578063dea89f6c14610625578063e4b1333c1461063a578063e57e9e191461065057610272565b8063aaa46688116100fd578063aaa4668814610582578063acbea30614610598578063ae206c45146105ae578063c3f05d53146105c3578063ccf3eb9f146105d957610272565b8063813564de146104d757806384474b27146104ec578063862171af146105255780638da5cb5b1461053b578063a3aebc691461056d57610272565b80633fcec858116101d25780636e553f65116101965780636e553f651461041c57806370a082311461043c578063715018a61461047257806375172a8b1461048757806379599f961461049c5780637e756288146104c157610272565b80633fcec858146103a55780634c9e40bd146103bb57806359e664f7146103d15780635c7fb783146103e65780636a9d7d96146103fc57610272565b806319afe4731161021957806319afe47314610325578063258630851461033a5780632b70c8fc1461035a5780632f58154d1461036f5780633528b5231461038557610272565b8062f714ce146102905780630f85b784146102b257806311da60b4146102db5780631266a619146102f0578063176d220b1461031057610272565b36610272576040516311e9444560e01b815260040160405180910390fd5b600036606060405163b25befbf60e01b815260040160405180910390fd5b34801561029c57600080fd5b506102b06102ab3660046128cf565b610753565b005b3480156102be57600080fd5b506102c860125481565b6040519081526020015b60405180910390f35b3480156102e757600080fd5b506102b0610761565b3480156102fc57600080fd5b506102b061030b3660046128fa565b61076b565b34801561031c57600080fd5b50600b546102c8565b34801561033157600080fd5b506008546102c8565b34801561034657600080fd5b506102b061035536600461291b565b610775565b34801561036657600080fd5b506009546102c8565b34801561037b57600080fd5b506102c860085481565b34801561039157600080fd5b506102b06103a036600461291b565b610978565b3480156103b157600080fd5b506102c860105481565b3480156103c757600080fd5b506102c8600b5481565b3480156103dd57600080fd5b506102c8600181565b3480156103f257600080fd5b506102c8600d5481565b34801561040857600080fd5b506102b061041736600461289f565b610a2b565b34801561042857600080fd5b506102b06104373660046128cf565b610a37565b34801561044857600080fd5b506102c86104573660046127e3565b6001600160a01b031660009081526007602052604090205490565b34801561047e57600080fd5b506102b0610a41565b34801561049357600080fd5b506102c8610ab5565b3480156104a857600080fd5b506104b1610b36565b60405190151581526020016102d2565b3480156104cd57600080fd5b506102c8600a5481565b3480156104e357600080fd5b50600a546102c8565b3480156104f857600080fd5b50600854600954600a54600b546040805194855260208501939093529183015260608201526080016102d2565b34801561053157600080fd5b506102c860065481565b34801561054757600080fd5b506000546001600160a01b03165b6040516001600160a01b0390911681526020016102d2565b34801561057957600080fd5b506102c8610b40565b34801561058e57600080fd5b506102c860045481565b3480156105a457600080fd5b506102c8600f5481565b3480156105ba57600080fd5b506102c8610b66565b3480156105cf57600080fd5b506102c860035481565b3480156105e557600080fd5b50600254610555906001600160a01b031681565b34801561060557600080fd5b506102c8600e5481565b34801561061b57600080fd5b506102c860055481565b34801561063157600080fd5b506102c8601481565b34801561064657600080fd5b506102c8600c5481565b34801561065c57600080fd5b506102c860095481565b34801561067257600080fd5b506102c861068136600461281d565b610cd9565b34801561069257600080fd5b506102c860115481565b3480156106a857600080fd5b506106d86106b73660046127e3565b60076020526000908152604090208054600182015460029092015490919083565b604080519384526020840192909252908201526060016102d2565b3480156106ff57600080fd5b506102b061070e3660046127e3565b610cf0565b34801561071f57600080fd5b506102b061072e3660046128fa565b610dda565b34801561073f57600080fd5b50600154610555906001600160a01b031681565b61075d8282610de4565b5050565b610769611382565b565b61075d8282611556565b6000546001600160a01b031633146107a85760405162461bcd60e51b815260040161079f906129c5565b60405180910390fd5b8215806107b3575080155b806107be5750838210155b6107fe5760405162461bcd60e51b8152602060048201526011602482015270185cdac81b195cdcc81d1a185b88189a59607a1b604482015260640161079f565b8215801561080a575080155b15610828576000600b819055600a8190556009819055600855610972565b6002546040805163bd6d894d60e01b815290516000926001600160a01b03169163bd6d894d91600480830192602092919082900301818787803b15801561086e57600080fd5b505af1158015610882573d6000803e3d6000fd5b505050506040513d601f19601f820116820180604052508101906108a691906128b7565b9050836108bc576000600981905560085561090c565b808510156109015760405162461bcd60e51b8152602060048201526012602482015271189a59081b195cdcc81d1a185b881cdc1bdd60721b604482015260640161079f565b600885905560098490555b81610920576000600b819055600a55610970565b808310156109655760405162461bcd60e51b8152602060048201526012602482015271185cdac81b195cdcc81d1a185b881cdc1bdd60721b604482015260640161079f565b600a839055600b8290555b505b50505050565b6000546001600160a01b031633146109a25760405162461bcd60e51b815260040161079f906129c5565b600954849084908411156109e1576000600954856109c09190612c0d565b90508083116109d257600092506109df565b6109dc8184612c0d565b92505b505b82600b541015610a1c576000600b54846109fb9190612c0d565b9050808211610a0d5760009150610a1a565b610a178183612c0d565b91505b505b600991909155600b5550505050565b610a34816118b7565b50565b61075d8282611b1f565b6000546001600160a01b03163314610a6b5760405162461bcd60e51b815260040161079f906129c5565b600080546040516001600160a01b03909116907f8be0079c531659141344cd1fd0a4f28419497f9722a3daafe3b4186f6b6457e0908390a3600080546001600160a01b0319169055565b6001546040516370a0823160e01b81523060048201526000916001600160a01b0316906370a082319060240160206040518083038186803b158015610af957600080fd5b505afa158015610b0d573d6000803e3d6000fd5b505050506040513d601f19601f82011682018060405250810190610b3191906128b7565b905090565b6000610b3161216d565b60035460009043811115610b5e57610b584382612c0d565b91505090565b600091505090565b6000600654600014158015610b7d57506006544310155b15610b89575060055490565b6002546040805163bd6d894d60e01b815290516000926001600160a01b03169163bd6d894d91600480830192602092919082900301818787803b158015610bcf57600080fd5b505af1158015610be3573d6000803e3d6000fd5b505050506040513d601f19601f82011682018060405250810190610c0791906128b7565b90506000610c13610b40565b90506000600260009054906101000a90046001600160a01b03166001600160a01b031663ae9d70b06040518163ffffffff1660e01b815260040160206040518083038186803b158015610c6557600080fd5b505afa158015610c79573d6000803e3d6000fd5b505050506040513d601f19601f82011682018060405250810190610c9d91906128b7565b9050670de0b6b3a764000082610cb38386612baf565b610cbd9190612baf565b610cc79190612b18565b610cd19084612aad565b949350505050565b6000610ce684848461228f565b90505b9392505050565b6000546001600160a01b03163314610d1a5760405162461bcd60e51b815260040161079f906129c5565b6001600160a01b038116610d7f5760405162461bcd60e51b815260206004820152602660248201527f4f776e61626c653a206e6577206f776e657220697320746865207a65726f206160448201526564647265737360d01b606482015260840161079f565b600080546040516001600160a01b03808516939216917f8be0079c531659141344cd1fd0a4f28419497f9722a3daafe3b4186f6b6457e091a3600080546001600160a01b0319166001600160a01b0392909216919091179055565b61075d82826123d8565b60008211610df157600080fd5b6000336002546040516370a0823160e01b81523060048201529192506000916001600160a01b03909116906370a082319060240160206040518083038186803b158015610e3d57600080fd5b505afa158015610e51573d6000803e3d6000fd5b505050506040513d601f19601f82011682018060405250810190610e7591906128b7565b6001546040516370a0823160e01b81523060048201529192506000916001600160a01b03909116906370a082319060240160206040518083038186803b158015610ebe57600080fd5b505afa158015610ed2573d6000803e3d6000fd5b505050506040513d601f19601f82011682018060405250810190610ef691906128b7565b6001549091506001600160a01b0385811691161415610f9d5760025460405163852a12e360e01b8152600481018790526001600160a01b039091169063852a12e3906024015b602060405180830381600087803b158015610f5657600080fd5b505af1158015610f6a573d6000803e3d6000fd5b505050506040513d601f19601f82011682018060405250810190610f8e91906128b7565b15610f9857600080fd5b610ffd565b6002546001600160a01b0385811691161415610fe45760025460405163db006a7560e01b8152600481018790526001600160a01b039091169063db006a7590602401610f3c565b604051637401d93160e01b815260040160405180910390fd5b6002546040516370a0823160e01b81523060048201526000916001600160a01b0316906370a082319060240160206040518083038186803b15801561104157600080fd5b505afa158015611055573d6000803e3d6000fd5b505050506040513d601f19601f8201168201806040525081019061107991906128b7565b6110839084612c0d565b6001546040516370a0823160e01b815230600482015291925060009184916001600160a01b0316906370a082319060240160206040518083038186803b1580156110cc57600080fd5b505afa1580156110e0573d6000803e3d6000fd5b505050506040513d601f19601f8201168201806040525081019061110491906128b7565b61110e9190612c0d565b6001600160a01b0386166000908152600760209081526040808320815160608101835281548082526001830154948201949094526002909101549181019190915292935061115d908590612c0d565b90506000600260009054906101000a90046001600160a01b03166001600160a01b031663bd6d894d6040518163ffffffff1660e01b8152600401602060405180830381600087803b1580156111b157600080fd5b505af11580156111c5573d6000803e3d6000fd5b505050506040513d601f19601f820116820180604052508101906111e991906128b7565b90506111fd836111f7610b66565b8361228f565b82101561121c5760405162461bcd60e51b815260040161079f90612a3f565b60015460405163a9059cbb60e01b81526001600160a01b038a81166004830152602482018790529091169063a9059cbb90604401602060405180830381600087803b15801561126a57600080fd5b505af115801561127e573d6000803e3d6000fd5b505050506040513d601f19601f820116820180604052508101906112a291906127fd565b6112e45760405162461bcd60e51b81526020600482015260136024820152721d1c985b9cd9995c881bdd5d0819985a5b1959606a1b604482015260640161079f565b6001600160a01b038816600090815260076020526040812083905560118054879290611311908490612aad565b90915550508161132f5760046000815461132a90612c24565b909155505b876001600160a01b03167f0373e649c2cd6407bd569d5c66304cce4b4977c361734b811045f83c7bfe8c8b8a8c888560405161136e949392919061294c565b60405180910390a250505050505050505050565b60006006541161139157600080fd5b6000600554116113a057600080fd5b336000818152600760209081526040918290208251606081018452815481526001820154928101839052600290910154928101929092526113df575050565b60008160200151126114335760405162461bcd60e51b815260206004820152601b60248201527f6e6f2073686f727420706f736974696f6e20746f20736574746c650000000000604482015260640161079f565b60208101516005546040830151600092919061144f9083612b2c565b6114599190612aea565b6114639190612bce565b9050600081121561148e5761147781612c56565b82518390611486908390612c0d565b9052506114a4565b80826000018181516114a09190612aad565b9052505b80601260008282546114b69190612a6c565b90915550506020820151600b80546000906114d2908490612c0d565b90915550506020820151600e80546000906114ee908490612aad565b909155505060055460208301516115059190612baf565b600f60008282546115169190612aad565b90915550506000602080840182815260408086018481526001600160a01b0390971684526007909252912092518355516001830155509051600290910155565b600354339043106115975760405162461bcd60e51b815260206004820152600b60248201526a706173742065787069727960a81b604482015260640161079f565b600083116115e75760405162461bcd60e51b815260206004820152601e60248201527f73697a65206d7573742062652067726561746572207468616e207a65726f0000604482015260640161079f565b600082116116075760405162461bcd60e51b815260040161079f906129fa565b6001600160a01b0381166000908152600760209081526040918290208251606081018452815481526001820154928101839052600290910154928101929092521561168c5760405162461bcd60e51b81526020600482015260156024820152743837b9b4ba34b7b71030b63932b0b23c9037b832b760591b604482015260640161079f565b6009548411156116de5760405162461bcd60e51b815260206004820152601b60248201527f696e73756666696369656e742073697a6520617661696c61626c650000000000604482015260640161079f565b6116e784612c56565b602082018190526000136117285760405162461bcd60e51b81526020600482015260086024820152676f766572666c6f7760c01b604482015260640161079f565b6008548311156117745760405162461bcd60e51b81526020600482015260176024820152761b1a5b5a5d081c1c9a58d9481b9bdd081b585d18da1959604a1b604482015260640161079f565b600854604080830191909152600254815163bd6d894d60e01b815291516000926001600160a01b039092169163bd6d894d91600480830192602092919082900301818787803b1580156117c657600080fd5b505af11580156117da573d6000803e3d6000fd5b505050506040513d601f19601f820116820180604052508101906117fe91906128b7565b905061180c826111f7610b66565b8251101561182c5760405162461bcd60e51b815260040161079f90612a3f565b846009600082825461183e9190612c0d565b9250508190555084600c60008282546118579190612aad565b90915550506008546118699086612baf565b600d600082825461187a9190612aad565b9091555050506001600160a01b03909116600090815260076020908152604091829020835181559083015160018201559101516002909101555050565b600081116118c457600080fd5b60028054336000818152600760209081526040808320815160608101835281548082526001830154948201949094529601549086015291936001600160a01b03909316928592909190611918908490612c0d565b90506000846001600160a01b031663bd6d894d6040518163ffffffff1660e01b8152600401602060405180830381600087803b15801561195757600080fd5b505af115801561196b573d6000803e3d6000fd5b505050506040513d601f19601f8201168201806040525081019061198f91906128b7565b905061199d836111f7610b66565b8210156119bc5760405162461bcd60e51b815260040161079f90612a3f565b60015460405163a9059cbb60e01b81526001600160a01b038881166004830152602482018790529091169063a9059cbb90604401602060405180830381600087803b158015611a0a57600080fd5b505af1158015611a1e573d6000803e3d6000fd5b505050506040513d601f19601f82011682018060405250810190611a4291906127fd565b611a845760405162461bcd60e51b81526020600482015260136024820152721d1c985b9cd9995c881bdd5d0819985a5b1959606a1b604482015260640161079f565b6001600160a01b038616600090815260076020526040812083905560118054869290611ab1908490612aad565b909155505081611acf57600460008154611aca90612c24565b909155505b856001600160a01b03167f0373e649c2cd6407bd569d5c66304cce4b4977c361734b811045f83c7bfe8c8b86898785604051611b0e949392919061294c565b60405180910390a250505050505050565b60008211611b5b5760405162461bcd60e51b815260206004820152600960248201526806465706f7369743a360bc1b604482015260640161079f565b600154339083906001600160a01b0384811691161415611f55576001546040516323b872dd60e01b81526001600160a01b03848116600483015230602483015260448201879052909116906323b872dd90606401602060405180830381600087803b158015611bc957600080fd5b505af1158015611bdd573d6000803e3d6000fd5b505050506040513d601f19601f82011682018060405250810190611c0191906127fd565b611c395760405162461bcd60e51b81526020600482015260096024820152686465706f7369743a3160b81b604482015260640161079f565b6002546040516370a0823160e01b81523060048201526000916001600160a01b0316906370a082319060240160206040518083038186803b158015611c7d57600080fd5b505afa158015611c91573d6000803e3d6000fd5b505050506040513d601f19601f82011682018060405250810190611cb591906128b7565b60015460025460405163095ea7b360e01b81526001600160a01b03918216600482015260248101899052929350169063095ea7b390604401602060405180830381600087803b158015611d0757600080fd5b505af1158015611d1b573d6000803e3d6000fd5b505050506040513d601f19601f82011682018060405250810190611d3f91906127fd565b611d775760405162461bcd60e51b81526020600482015260096024820152683232b837b9b4ba1d1960b91b604482015260640161079f565b60025460405163140e25ad60e31b8152600481018790526000916001600160a01b03169063a0712d6890602401602060405180830381600087803b158015611dbe57600080fd5b505af1158015611dd2573d6000803e3d6000fd5b505050506040513d601f19601f82011682018060405250810190611df691906128b7565b90508015611e8257604080518082018252600b8152693232b837b9b4ba1d199d60b11b602082015290611e2d90601f841690612ac5565b60f81b81600a81518110611e5157634e487b7160e01b600052603260045260246000fd5b60200101906001600160f81b031916908160001a9053508060405162461bcd60e51b815260040161079f9190612972565b506002546040516370a0823160e01b81523060048201526000916001600160a01b0316906370a082319060240160206040518083038186803b158015611ec757600080fd5b505afa158015611edb573d6000803e3d6000fd5b505050506040513d601f19601f82011682018060405250810190611eff91906128b7565b90506000611f0d8383612c0d565b905060008111611f4b5760405162461bcd60e51b815260206004820152600960248201526819195c1bdcda5d0e8d60ba1b604482015260640161079f565b955061202f915050565b6002546001600160a01b0384811691161415610fe4576002546040516323b872dd60e01b81526001600160a01b03848116600483015230602483015260448201879052909116906323b872dd90606401602060405180830381600087803b158015611fbf57600080fd5b505af1158015611fd3573d6000803e3d6000fd5b505050506040513d601f19601f82011682018060405250810190611ff791906127fd565b61202f5760405162461bcd60e51b81526020600482015260096024820152686465706f7369743a3560b81b604482015260640161079f565b6001600160a01b038216600090815260076020526040902054806120615760046000815461205c90612c3b565b909155505b61206b8582612aad565b6001600160a01b03841660009081526007602052604081209190915560108054879290612099908490612aad565b90915550506002546040805163bd6d894d60e01b815290516000926001600160a01b03169163bd6d894d91600480830192602092919082900301818787803b1580156120e457600080fd5b505af11580156120f8573d6000803e3d6000fd5b505050506040513d601f19601f8201168201806040525081019061211c91906128b7565b9050836001600160a01b03167f4e2ca0515ed1aef1395f66b5303bb5d6f1bf9d61a353fa53f73f8ac9973fa9f68685898560405161215d949392919061294c565b60405180910390a2505050505050565b600060035443101561217f5750600090565b600654612289576002546040805163bd6d894d60e01b815290516000926001600160a01b03169163bd6d894d91600480830192602092919082900301818787803b1580156121cc57600080fd5b505af11580156121e0573d6000803e3d6000fd5b505050506040513d601f19601f8201168201806040525081019061220491906128b7565b6005819055436006559050806122545760405162461bcd60e51b8152602060048201526015602482015274666978696e672063616e6e6f74206265207a65726f60581b604482015260640161079f565b6040518181527f2a45eee61b61ef4932e2d79b32be61a1a538cbe00381faffb4d1cf3b1268c46b9060200160405180910390a1505b50600190565b60008360200151600014156122a657506000610ce9565b60008460400151116122f15760405162461bcd60e51b815260206004820152601460248201527370726963652063616e6e6f74206265207a65726f60601b604482015260640161079f565b600083116123375760405162461bcd60e51b81526020600482015260136024820152726d61726b2063616e6e6f74206265207a65726f60681b604482015260640161079f565b602084015183600080831261234c5782612355565b61235583612c56565b9050600085601460016123688686612b2c565b6123729190612b2c565b61237c9190612aea565b6123869190612aea565b905060008685858b6040015161239c9190612bce565b6123a69190612b2c565b6123b09190612aea565b90506123bc8183612a6c565b915060008212156123cc57600091505b50979650505050505050565b600354339043106124195760405162461bcd60e51b815260206004820152600b60248201526a706173742065787069727960a81b604482015260640161079f565b826000811361246a5760405162461bcd60e51b815260206004820152601e60248201527f73697a65206d7573742062652067726561746572207468616e207a65726f0000604482015260640161079f565b6000831161248a5760405162461bcd60e51b815260040161079f906129fa565b6001600160a01b038216600090815260076020908152604080832081516060810183528154815260018201549381018490526002909101549181019190915291136125175760405162461bcd60e51b815260206004820152601a60248201527f6e6f2073686f727420706f736974696f6e20746f20636c6f7365000000000000604482015260640161079f565b60008160200151836125299190612a6c565b131561254057806020015161253d90612c56565b91505b600b548211156125925760405162461bcd60e51b815260206004820152601b60248201527f696e73756666696369656e742073697a6520617661696c61626c650000000000604482015260640161079f565b600a548410156125de5760405162461bcd60e51b81526020600482015260176024820152761b1a5b5a5d081c1c9a58d9481b9bdd081b585d18da1959604a1b604482015260640161079f565b6002546040805163bd6d894d60e01b815290516000926001600160a01b03169163bd6d894d91600480830192602092919082900301818787803b15801561262457600080fd5b505af1158015612638573d6000803e3d6000fd5b505050506040513d601f19601f8201168201806040525081019061265c91906128b7565b905060008184600a5485604001516126749190612bce565b61267e9190612b2c565b6126889190612aea565b905060008112156126b35761269c81612c56565b835184906126ab908390612c0d565b9052506126c9565b80836000018181516126c59190612aad565b9052505b83836020018181516126db9190612a6c565b90525060208301516126ef57600060408401525b612701836126fb610b66565b8461228f565b835110156127215760405162461bcd60e51b815260040161079f90612a3f565b80601260008282546127339190612a6c565b9250508190555083600b600082825461274c9190612c0d565b9250508190555083600e60008282546127659190612aad565b9091555050600a546127779085612baf565b600f60008282546127889190612aad565b9091555050506001600160a01b039093166000908152600760209081526040918290208351815590830151600182015591015160029091015550505050565b80356001600160a01b03811681146127de57600080fd5b919050565b6000602082840312156127f4578081fd5b610ce9826127c7565b60006020828403121561280e578081fd5b81518015158114610ce9578182fd5b600080600083850360a0811215612832578283fd5b606081121561283f578283fd5b506040516060810181811067ffffffffffffffff8211171561286f57634e487b7160e01b84526041600452602484fd5b60409081528535825260208087013590830152858101359082015295606085013595506080909401359392505050565b6000602082840312156128b0578081fd5b5035919050565b6000602082840312156128c8578081fd5b5051919050565b600080604083850312156128e1578182fd5b823591506128f1602084016127c7565b90509250929050565b6000806040838503121561290c578182fd5b50508035926020909101359150565b60008060008060808587031215612930578081fd5b5050823594602084013594506040840135936060013592509050565b6001600160a01b0394909416845260208401929092526040830152606082015260800190565b6000602080835283518082850152825b8181101561299e57858101830151858201604001528201612982565b818111156129af5783604083870101525b50601f01601f1916929092016040019392505050565b6020808252818101527f4f776e61626c653a2063616c6c6572206973206e6f7420746865206f776e6572604082015260600190565b60208082526025908201527f6c696d6974207072696365206d7573742062652067726561746572207468616e604082015264207a65726f60d81b606082015260800190565b60208082526013908201527234b739bab33334b1b4b2b73a1036b0b933b4b760691b604082015260600190565b600080821280156001600160ff1b0384900385131615612a8e57612a8e612c70565b600160ff1b8390038412811615612aa757612aa7612c70565b50500190565b60008219821115612ac057612ac0612c70565b500190565b600060ff821660ff84168060ff03821115612ae257612ae2612c70565b019392505050565b600082612af957612af9612c86565b600160ff1b821460001984141615612b1357612b13612c70565b500590565b600082612b2757612b27612c86565b500490565b60006001600160ff1b0381841382841380821686840486111615612b5257612b52612c70565b600160ff1b84871282811687830589121615612b7057612b70612c70565b858712925087820587128484161615612b8b57612b8b612c70565b87850587128184161615612ba157612ba1612c70565b505050929093029392505050565b6000816000190483118215151615612bc957612bc9612c70565b500290565b60008083128015600160ff1b850184121615612bec57612bec612c70565b6001600160ff1b0384018313811615612c0757612c07612c70565b50500390565b600082821015612c1f57612c1f612c70565b500390565b600081612c3357612c33612c70565b506000190190565b6000600019821415612c4f57612c4f612c70565b5060010190565b6000600160ff1b821415612c6c57612c6c612c70565b0390565b634e487b7160e01b600052601160045260246000fd5b634e487b7160e01b600052601260045260246000fdfea26469706673582212201090cde353d5af8e151e807cc6f6a2afd82b3acde70a5fd5ed9f19c22e6af2f364736f6c63430008040033","bytecodeSha1":"ff751030b5f40752ca9656175e3dd43823ed1ea9","compiler":{"evm_version":"istanbul","optimizer":{"enabled":true,"runs":200},"version":"0.8.4+commit.c7e474f2"},"contractName":"IrsAgent","language":"Solidity","natspec":{"kind":"dev","methods":{"owner()":{"details":"Returns the address of the current owner."},"renounceOwnership()":{"details":"Leaves the contract without owner. It will not be possible to call `onlyOwner` functions anymore. Can only be called by the current owner. NOTE: Renouncing ownership will leave the contract without an owner, thereby removing any functionality that is only available to the owner."},"transferOwnership(address)":{"details":"Transfers ownership of the contract to a new account (`newOwner`). Can only be called by the current owner."}},"version":1},"opcodes":"PUSH1 0x80 PUSH1 0x40 MSTORE PUSH1 0x4 CALLDATASIZE LT PUSH2 0x254 JUMPI PUSH1 0x0 CALLDATALOAD PUSH1 0xE0 SHR DUP1 PUSH4 0x813564DE GT PUSH2 0x139 JUMPI DUP1 PUSH4 0xCE74228A GT PUSH2 0xB6 JUMPI DUP1 PUSH4 0xEFF3D750 GT PUSH2 0x7A JUMPI DUP1 PUSH4 0xEFF3D750 EQ PUSH2 0x666 JUMPI DUP1 PUSH4 0xF0940990 EQ PUSH2 0x686 JUMPI DUP1 PUSH4 0xF29EE125 EQ PUSH2 0x69C JUMPI DUP1 PUSH4 0xF2FDE38B EQ PUSH2 0x6F3 JUMPI DUP1 PUSH4 0xF69D91AE EQ PUSH2 0x713 JUMPI DUP1 PUSH4 0xFC0C546A EQ PUSH2 0x733 JUMPI PUSH2 0x272 JUMP JUMPDEST DUP1 PUSH4 0xCE74228A EQ PUSH2 0x5F9 JUMPI DUP1 PUSH4 0xDB1155EC EQ PUSH2 0x60F JUMPI DUP1 PUSH4 0xDEA89F6C EQ PUSH2 0x625 JUMPI DUP1 PUSH4 0xE4B1333C EQ PUSH2 0x63A JUMPI DUP1 PUSH4 0xE57E9E19 EQ PUSH2 0x650 JUMPI PUSH2 0x272 JUMP JUMPDEST DUP1 PUSH4 0xAAA46688 GT PUSH2 0xFD JUMPI DUP1 PUSH4 0xAAA46688 EQ PUSH2 0x582 JUMPI DUP1 PUSH4 0xACBEA306 EQ PUSH2 0x598 JUMPI DUP1 PUSH4 0xAE206C45 EQ PUSH2 0x5AE JUMPI DUP1 PUSH4 0xC3F05D53 EQ PUSH2 0x5C3 JUMPI DUP1 PUSH4 0xCCF3EB9F EQ PUSH2 0x5D9 JUMPI PUSH2 0x272 JUMP JUMPDEST DUP1 PUSH4 0x813564DE EQ PUSH2 0x4D7 JUMPI DUP1 PUSH4 0x84474B27 EQ PUSH2 0x4EC JUMPI DUP1 PUSH4 0x862171AF EQ PUSH2 0x525 JUMPI DUP1 PUSH4 0x8DA5CB5B EQ PUSH2 0x53B JUMPI DUP1 PUSH4 0xA3AEBC69 EQ PUSH2 0x56D JUMPI PUSH2 0x272 JUMP JUMPDEST DUP1 PUSH4 0x3FCEC858 GT PUSH2 0x1D2 JUMPI DUP1 PUSH4 0x6E553F65 GT PUSH2 0x196 JUMPI DUP1 PUSH4 0x6E553F65 EQ PUSH2 0x41C JUMPI DUP1 PUSH4 0x70A08231 EQ PUSH2 0x43C JUMPI DUP1 PUSH4 0x715018A6 EQ PUSH2 0x472 JUMPI DUP1 PUSH4 0x75172A8B EQ PUSH2 0x487 JUMPI DUP1 PUSH4 0x79599F96 EQ PUSH2 0x49C JUMPI DUP1 PUSH4 0x7E756288 EQ PUSH2 0x4C1 JUMPI PUSH2 0x272 JUMP JUMPDEST DUP1 PUSH4 0x3FCEC858 EQ PUSH2 0x3A5 JUMPI DUP1 PUSH4 0x4C9E40BD EQ PUSH2 0x3BB JUMPI DUP1 PUSH4 0x59E664F7 EQ PUSH2 0x3D1 JUMPI DUP1 PUSH4 0x5C7FB783 EQ PUSH2 0x3E6 JUMPI DUP1 PUSH4 0x6A9D7D96 EQ PUSH2 0x3FC JUMPI PUSH2 0x272 JUMP JUMPDEST DUP1 PUSH4 0x19AFE473 GT PUSH2 0x219 JUMPI DUP1 PUSH4 0x19AFE473 EQ PUSH2 0x325 JUMPI DUP1 PUSH4 0x25863085 EQ PUSH2 0x33A JUMPI DUP1 PUSH4 0x2B70C8FC EQ PUSH2 0x35A JUMPI DUP1 PUSH4 0x2F58154D EQ PUSH2 0x36F JUMPI DUP1 PUSH4 0x3528B523 EQ PUSH2 0x385 JUMPI PUSH2 0x272 JUMP JUMPDEST DUP1 PUSH3 0xF714CE EQ PUSH2 0x290 JUMPI DUP1 PUSH4 0xF85B784 EQ PUSH2 0x2B2 JUMPI DUP1 PUSH4 0x11DA60B4 EQ PUSH2 0x2DB JUMPI DUP1 PUSH4 0x1266A619 EQ PUSH2 0x2F0 JUMPI DUP1 PUSH4 0x176D220B EQ PUSH2 0x310 JUMPI PUSH2 0x272 JUMP JUMPDEST CALLDATASIZE PUSH2 0x272 JUMPI PUSH1 0x40 MLOAD PUSH4 0x11E94445 PUSH1 0xE0 SHL DUP2 MSTORE PUSH1 0x4 ADD PUSH1 0x40 MLOAD DUP1 SWAP2 SUB SWAP1 REVERT JUMPDEST PUSH1 0x0 CALLDATASIZE PUSH1 0x60 PUSH1 0x40 MLOAD PUSH4 0xB25BEFBF PUSH1 0xE0 SHL DUP2 MSTORE PUSH1 0x4 ADD PUSH1 0x40 MLOAD DUP1 SWAP2 SUB SWAP1 REVERT JUMPDEST CALLVALUE DUP1 ISZERO PUSH2 0x29C JUMPI PUSH1 0x0 DUP1 REVERT JUMPDEST POP PUSH2 0x2B0 PUSH2 0x2AB CALLDATASIZE PUSH1 0x4 PUSH2 0x28CF JUMP JUMPDEST PUSH2 0x753 JUMP JUMPDEST STOP JUMPDEST CALLVALUE DUP1 ISZERO PUSH2 0x2BE JUMPI PUSH1 0x0 DUP1 REVERT JUMPDEST POP PUSH2 0x2C8 PUSH1 0x12 SLOAD DUP2 JUMP JUMPDEST PUSH1 0x40 MLOAD SWAP1 DUP2 MSTORE PUSH1 0x20 ADD JUMPDEST PUSH1 0x40 MLOAD DUP1 SWAP2 SUB SWAP1 RETURN JUMPDEST CALLVALUE DUP1 ISZERO PUSH2 0x2E7 JUMPI PUSH1 0x0 DUP1 REVERT JUMPDEST POP PUSH2 0x2B0 PUSH2 0x761 JUMP JUMPDEST CALLVALUE DUP1 ISZERO PUSH2 0x2FC JUMPI PUSH1 0x0 DUP1 REVERT JUMPDEST POP PUSH2 0x2B0 PUSH2 0x30B CALLDATASIZE PUSH1 0x4 PUSH2 0x28FA JUMP JUMPDEST PUSH2 0x76B JUMP JUMPDEST CALLVALUE DUP1 ISZERO PUSH2 0x31C JUMPI PUSH1 0x0 DUP1 REVERT JUMPDEST POP PUSH1 0xB SLOAD PUSH2 0x2C8 JUMP JUMPDEST CALLVALUE DUP1 ISZERO PUSH2 0x331 JUMPI PUSH1 0x0 DUP1 REVERT JUMPDEST POP PUSH1 0x8 SLOAD PUSH2 0x2C8 JUMP JUMPDEST CALLVALUE DUP1 ISZERO PUSH2 0x346 JUMPI PUSH1 0x0 DUP1 REVERT JUMPDEST POP PUSH2 0x2B0 PUSH2 0x355 CALLDATASIZE PUSH1 0x4 PUSH2 0x291B JUMP JUMPDEST PUSH2 0x775 JUMP JUMPDEST CALLVALUE DUP1 ISZERO PUSH2 0x366 JUMPI PUSH1 0x0 DUP1 REVERT JUMPDEST POP PUSH1 0x9 SLOAD PUSH2 0x2C8 JUMP JUMPDEST CALLVALUE DUP1 ISZERO PUSH2 0x37B JUMPI PUSH1 0x0 DUP1 REVERT JUMPDEST POP PUSH2 0x2C8 PUSH1 0x8 SLOAD DUP2 JUMP JUMPDEST CALLVALUE DUP1 ISZERO PUSH2 0x391 JUMPI PUSH1 0x0 DUP1 REVERT JUMPDEST POP PUSH2 0x2B0 PUSH2 0x3A0 CALLDATASIZE PUSH1 0x4 PUSH2 0x291B JUMP JUMPDEST PUSH2 0x978 JUMP JUMPDEST CALLVALUE DUP1 ISZERO PUSH2 0x3B1 JUMPI PUSH1 0x0 DUP1 REVERT JUMPDEST POP PUSH2 0x2C8 PUSH1 0x10 SLOAD DUP2 JUMP JUMPDEST CALLVALUE DUP1 ISZERO PUSH2 0x3C7 JUMPI PUSH1 0x0 DUP1 REVERT JUMPDEST POP PUSH2 0x2C8 PUSH1 0xB SLOAD DUP2 JUMP JUMPDEST CALLVALUE DUP1 ISZERO PUSH2 0x3DD JUMPI PUSH1 0x0 DUP1 REVERT JUMPDEST POP PUSH2 0x2C8 PUSH1 0x1 DUP2 JUMP JUMPDEST CALLVALUE DUP1 ISZERO PUSH2 0x3F2 JUMPI PUSH1 0x0 DUP1 REVERT JUMPDEST POP PUSH2 0x2C8 PUSH1 0xD SLOAD DUP2 JUMP JUMPDEST CALLVALUE DUP1 ISZERO PUSH2 0x408 JUMPI PUSH1 0x0 DUP1 REVERT JUMPDEST POP PUSH2 0x2B0 PUSH2 0x417 CALLDATASIZE PUSH1 0x4 PUSH2 0x289F JUMP JUMPDEST PUSH2 0xA2B JUMP JUMPDEST CALLVALUE DUP1 ISZERO PUSH2 0x428 JUMPI PUSH1 0x0 DUP1 REVERT JUMPDEST POP PUSH2 0x2B0 PUSH2 0x437 CALLDATASIZE PUSH1 0x4 PUSH2 0x28CF JUMP JUMPDEST PUSH2 0xA37 JUMP JUMPDEST CALLVALUE DUP1 ISZERO PUSH2 0x448 JUMPI PUSH1 0x0 DUP1 REVERT JUMPDEST POP PUSH2 0x2C8 PUSH2 0x457 CALLDATASIZE PUSH1 0x4 PUSH2 0x27E3 JUMP JUMPDEST PUSH1 0x1 PUSH1 0x1 PUSH1 0xA0 SHL SUB AND PUSH1 0x0 SWAP1 DUP2 MSTORE PUSH1 0x7 PUSH1 0x20 MSTORE PUSH1 0x40 SWAP1 KECCAK256 SLOAD SWAP1 JUMP JUMPDEST CALLVALUE DUP1 ISZERO PUSH2 0x47E JUMPI PUSH1 0x0 DUP1 REVERT JUMPDEST POP PUSH2 0x2B0 PUSH2 0xA41 JUMP JUMPDEST CALLVALUE DUP1 ISZERO PUSH2 0x493 JUMPI PUSH1 0x0 DUP1 REVERT JUMPDEST POP PUSH2 0x2C8 PUSH2 0xAB5 JUMP JUMPDEST CALLVALUE DUP1 ISZERO PUSH2 0x4A8 JUMPI PUSH1 0x0 DUP1 REVERT JUMPDEST POP PUSH2 0x4B1 PUSH2 0xB36 JUMP JUMPDEST PUSH1 0x40 MLOAD SWAP1 ISZERO ISZERO DUP2 MSTORE PUSH1 0x20 ADD PUSH2 0x2D2 JUMP JUMPDEST CALLVALUE DUP1 ISZERO PUSH2 0x4CD JUMPI PUSH1 0x0 DUP1 REVERT JUMPDEST POP PUSH2 0x2C8 PUSH1 0xA SLOAD DUP2 JUMP JUMPDEST CALLVALUE DUP1 ISZERO PUSH2 0x4E3 JUMPI PUSH1 0x0 DUP1 REVERT JUMPDEST POP PUSH1 0xA SLOAD PUSH2 0x2C8 JUMP JUMPDEST CALLVALUE DUP1 ISZERO PUSH2 0x4F8 JUMPI PUSH1 0x0 DUP1 REVERT JUMPDEST POP PUSH1 0x8 SLOAD PUSH1 0x9 SLOAD PUSH1 0xA SLOAD PUSH1 0xB SLOAD PUSH1 0x40 DUP1 MLOAD SWAP5 DUP6 MSTORE PUSH1 0x20 DUP6 ADD SWAP4 SWAP1 SWAP4 MSTORE SWAP2 DUP4 ADD MSTORE PUSH1 0x60 DUP3 ADD MSTORE PUSH1 0x80 ADD PUSH2 0x2D2 JUMP JUMPDEST CALLVALUE DUP1 ISZERO PUSH2 0x531 JUMPI PUSH1 0x0 DUP1 REVERT JUMPDEST POP PUSH2 0x2C8 PUSH1 0x6 SLOAD DUP2 JUMP JUMPDEST CALLVALUE DUP1 ISZERO PUSH2 0x547 JUMPI PUSH1 0x0 DUP1 REVERT JUMPDEST POP PUSH1 0x0 SLOAD PUSH1 0x1 PUSH1 0x1 PUSH1 0xA0 SHL SUB AND JUMPDEST PUSH1 0x40 MLOAD PUSH1 0x1 PUSH1 0x1 PUSH1 0xA0 SHL SUB SWAP1 SWAP2 AND DUP2 MSTORE PUSH1 0x20 ADD PUSH2 0x2D2 JUMP JUMPDEST CALLVALUE DUP1 ISZERO PUSH2 0x579 JUMPI PUSH1 0x0 DUP1 REVERT JUMPDEST POP PUSH2 0x2C8 PUSH2 0xB40 JUMP JUMPDEST CALLVALUE DUP1 ISZERO PUSH2 0x58E JUMPI PUSH1 0x0 DUP1 REVERT JUMPDEST POP PUSH2 0x2C8 PUSH1 0x4 SLOAD DUP2 JUMP JUMPDEST CALLVALUE DUP1 ISZERO PUSH2 0x5A4 JUMPI PUSH1 0x0 DUP1 REVERT JUMPDEST POP PUSH2 0x2C8 PUSH1 0xF SLOAD DUP2 JUMP JUMPDEST CALLVALUE DUP1 ISZERO PUSH2 0x5BA JUMPI PUSH1 0x0 DUP1 REVERT JUMPDEST POP PUSH2 0x2C8 PUSH2 0xB66 JUMP JUMPDEST CALLVALUE DUP1 ISZERO PUSH2 0x5CF JUMPI PUSH1 0x0 DUP1 REVERT JUMPDEST POP PUSH2 0x2C8 PUSH1 0x3 SLOAD DUP2 JUMP JUMPDEST CALLVALUE DUP1 ISZERO PUSH2 0x5E5 JUMPI PUSH1 0x0 DUP1 REVERT JUMPDEST POP PUSH1 0x2 SLOAD PUSH2 0x555 SWAP1 PUSH1 0x1 PUSH1 0x1 PUSH1 0xA0 SHL SUB AND DUP2 JUMP JUMPDEST CALLVALUE DUP1 ISZERO PUSH2 0x605 JUMPI PUSH1 0x0 DUP1 REVERT JUMPDEST POP PUSH2 0x2C8 PUSH1 0xE SLOAD DUP2 JUMP JUMPDEST CALLVALUE DUP1 ISZERO PUSH2 0x61B JUMPI PUSH1 0x0 DUP1 REVERT JUMPDEST POP PUSH2 0x2C8 PUSH1 0x5 SLOAD DUP2 JUMP JUMPDEST CALLVALUE DUP1 ISZERO PUSH2 0x631 JUMPI PUSH1 0x0 DUP1 REVERT JUMPDEST POP PUSH2 0x2C8 PUSH1 0x14 DUP2 JUMP JUMPDEST CALLVALUE DUP1 ISZERO PUSH2 0x646 JUMPI PUSH1 0x0 DUP1 REVERT JUMPDEST POP PUSH2 0x2C8 PUSH1 0xC SLOAD DUP2 JUMP JUMPDEST CALLVALUE DUP1 ISZERO PUSH2 0x65C JUMPI PUSH1 0x0 DUP1 REVERT JUMPDEST POP PUSH2 0x2C8 PUSH1 0x9 SLOAD DUP2 JUMP JUMPDEST CALLVALUE DUP1 ISZERO PUSH2 0x672 JUMPI PUSH1 0x0 DUP1 REVERT JUMPDEST POP PUSH2 0x2C8 PUSH2 0x681 CALLDATASIZE PUSH1 0x4 PUSH2 0x281D JUMP JUMPDEST PUSH2 0xCD9 JUMP JUMPDEST CALLVALUE DUP1 ISZERO PUSH2 0x692 JUMPI PUSH1 0x0 DUP1 REVERT JUMPDEST POP PUSH2 0x2C8 PUSH1 0x11 SLOAD DUP2 JUMP JUMPDEST CALLVALUE DUP1 ISZERO PUSH2 0x6A8 JUMPI PUSH1 0x0 DUP1 REVERT JUMPDEST POP PUSH2 0x6D8 PUSH2 0x6B7 CALLDATASIZE PUSH1 0x4 PUSH2 0x27E3 JUMP JUMPDEST PUSH1 0x7 PUSH1 0x20 MSTORE PUSH1 0x0 SWAP1 DUP2 MSTORE PUSH1 0x40 SWAP1 KECCAK256 DUP1 SLOAD PUSH1 0x1 DUP3 ADD SLOAD PUSH1 0x2 SWAP1 SWAP3 ADD SLOAD SWAP1 SWAP2 SWAP1 DUP4 JUMP JUMPDEST PUSH1 0x40 DUP1 MLOAD SWAP4 DUP5 MSTORE PUSH1 0x20 DUP5 ADD SWAP3 SWAP1 SWAP3 MSTORE SWAP1 DUP3 ADD MSTORE PUSH1 0x60 ADD PUSH2 0x2D2 JUMP JUMPDEST CALLVALUE DUP1 ISZERO PUSH2 0x6FF JUMPI PUSH1 0x0 DUP1 REVERT JUMPDEST POP PUSH2 0x2B0 PUSH2 0x70E CALLDATASIZE PUSH1 0x4 PUSH2 0x27E3 JUMP JUMPDEST PUSH2 0xCF0 JUMP JUMPDEST CALLVALUE DUP1 ISZERO PUSH2 0x71F JUMPI PUSH1 0x0 DUP1 REVERT JUMPDEST POP PUSH2 0x2B0 PUSH2 0x72E CALLDATASIZE PUSH1 0x4 PUSH2 0x28FA JUMP JUMPDEST PUSH2 0xDDA JUMP JUMPDEST CALLVALUE DUP1 ISZERO PUSH2 0x73F JUMPI PUSH1 0x0 DUP1 REVERT JUMPDEST POP PUSH1 0x1 SLOAD PUSH2 0x555 SWAP1 PUSH1 0x1 PUSH1 0x1 PUSH1 0xA0 SHL SUB AND DUP2 JUMP JUMPDEST PUSH2 0x75D DUP3 DUP3 PUSH2 0xDE4 JUMP JUMPDEST POP POP JUMP JUMPDEST PUSH2 0x769 PUSH2 0x1382 JUMP JUMPDEST JUMP JUMPDEST PUSH2 0x75D DUP3 DUP3 PUSH2 0x1556 JUMP JUMPDEST PUSH1 0x0 SLOAD PUSH1 0x1 PUSH1 0x1 PUSH1 0xA0 SHL SUB AND CALLER EQ PUSH2 0x7A8 JUMPI PUSH1 0x40 MLOAD PUSH3 0x461BCD PUSH1 0xE5 SHL DUP2 MSTORE PUSH1 0x4 ADD PUSH2 0x79F SWAP1 PUSH2 0x29C5 JUMP JUMPDEST PUSH1 0x40 MLOAD DUP1 SWAP2 SUB SWAP1 REVERT JUMPDEST DUP3 ISZERO DUP1 PUSH2 0x7B3 JUMPI POP DUP1 ISZERO JUMPDEST DUP1 PUSH2 0x7BE JUMPI POP DUP4 DUP3 LT ISZERO JUMPDEST PUSH2 0x7FE JUMPI PUSH1 0x40 MLOAD PUSH3 0x461BCD PUSH1 0xE5 SHL DUP2 MSTORE PUSH1 0x20 PUSH1 0x4 DUP3 ADD MSTORE PUSH1 0x11 PUSH1 0x24 DUP3 ADD MSTORE PUSH17 0x185CDAC81B195CDCC81D1A185B88189A59 PUSH1 0x7A SHL PUSH1 0x44 DUP3 ADD MSTORE PUSH1 0x64 ADD PUSH2 0x79F JUMP JUMPDEST DUP3 ISZERO DUP1 ISZERO PUSH2 0x80A JUMPI POP DUP1 ISZERO JUMPDEST ISZERO PUSH2 0x828 JUMPI PUSH1 0x0 PUSH1 0xB DUP2 SWAP1 SSTORE PUSH1 0xA DUP2 SWAP1 SSTORE PUSH1 0x9 DUP2 SWAP1 SSTORE PUSH1 0x8 SSTORE PUSH2 0x972 JUMP JUMPDEST PUSH1 0x2 SLOAD PUSH1 0x40 DUP1 MLOAD PUSH4 0xBD6D894D PUSH1 0xE0 SHL DUP2 MSTORE SWAP1 MLOAD PUSH1 0x0 SWAP3 PUSH1 0x1 PUSH1 0x1 PUSH1 0xA0 SHL SUB AND SWAP2 PUSH4 0xBD6D894D SWAP2 PUSH1 0x4 DUP1 DUP4 ADD SWAP3 PUSH1 0x20 SWAP3 SWAP2 SWAP1 DUP3 SWAP1 SUB ADD DUP2 DUP8 DUP8 DUP1 EXTCODESIZE ISZERO DUP1 ISZERO PUSH2 0x86E JUMPI PUSH1 0x0 DUP1 REVERT JUMPDEST POP GAS CALL ISZERO DUP1 ISZERO PUSH2 0x882 JUMPI RETURNDATASIZE PUSH1 0x0 DUP1 RETURNDATACOPY RETURNDATASIZE PUSH1 0x0 REVERT JUMPDEST POP POP POP POP PUSH1 0x40 MLOAD RETURNDATASIZE PUSH1 0x1F NOT PUSH1 0x1F DUP3 ADD AND DUP3 ADD DUP1 PUSH1 0x40 MSTORE POP DUP2 ADD SWAP1 PUSH2 0x8A6 SWAP2 SWAP1 PUSH2 0x28B7 JUMP JUMPDEST SWAP1 POP DUP4 PUSH2 0x8BC JUMPI PUSH1 0x0 PUSH1 0x9 DUP2 SWAP1 SSTORE PUSH1 0x8 SSTORE PUSH2 0x90C JUMP JUMPDEST DUP1 DUP6 LT ISZERO PUSH2 0x901 JUMPI PUSH1 0x40 MLOAD PUSH3 0x461BCD PUSH1 0xE5 SHL DUP2 MSTORE PUSH1 0x20 PUSH1 0x4 DUP3 ADD MSTORE PUSH1 0x12 PUSH1 0x24 DUP3 ADD MSTORE PUSH18 0x189A59081B195CDCC81D1A185B881CDC1BDD PUSH1 0x72 SHL PUSH1 0x44 DUP3 ADD MSTORE PUSH1 0x64 ADD PUSH2 0x79F JUMP JUMPDEST PUSH1 0x8 DUP6 SWAP1 SSTORE PUSH1 0x9 DUP5 SWAP1 SSTORE JUMPDEST DUP2 PUSH2 0x920 JUMPI PUSH1 0x0 PUSH1 0xB DUP2 SWAP1 SSTORE PUSH1 0xA SSTORE PUSH2 0x970 JUMP JUMPDEST DUP1 DUP4 LT ISZERO PUSH2 0x965 JUMPI PUSH1 0x40 MLOAD PUSH3 0x461BCD PUSH1 0xE5 SHL DUP2 MSTORE PUSH1 0x20 PUSH1 0x4 DUP3 ADD MSTORE PUSH1 0x12 PUSH1 0x24 DUP3 ADD MSTORE PUSH18 0x185CDAC81B195CDCC81D1A185B881CDC1BDD PUSH1 0x72 SHL PUSH1 0x44 DUP3 ADD MSTORE PUSH1 0x64 ADD PUSH2 0x79F JUMP JUMPDEST PUSH1 0xA DUP4 SWAP1 SSTORE PUSH1 0xB DUP3 SWAP1 SSTORE JUMPDEST POP JUMPDEST POP POP POP POP JUMP JUMPDEST PUSH1 0x0 SLOAD PUSH1 0x1 PUSH1 0x1 PUSH1 0xA0 SHL SUB AND CALLER EQ PUSH2 0x9A2 JUMPI PUSH1 0x40 MLOAD PUSH3 0x461BCD PUSH1 0xE5 SHL DUP2 MSTORE PUSH1 0x4 ADD PUSH2 0x79F SWAP1 PUSH2 0x29C5 JUMP JUMPDEST PUSH1 0x9 SLOAD DUP5 SWAP1 DUP5 SWAP1 DUP5 GT ISZERO PUSH2 0x9E1 JUMPI PUSH1 0x0 PUSH1 0x9 SLOAD DUP6 PUSH2 0x9C0 SWAP2 SWAP1 PUSH2 0x2C0D JUMP JUMPDEST SWAP1 POP DUP1 DUP4 GT PUSH2 0x9D2 JUMPI PUSH1 0x0 SWAP3 POP PUSH2 0x9DF JUMP JUMPDEST PUSH2 0x9DC DUP2 DUP5 PUSH2 0x2C0D JUMP JUMPDEST SWAP3 POP JUMPDEST POP JUMPDEST DUP3 PUSH1 0xB SLOAD LT ISZERO PUSH2 0xA1C JUMPI PUSH1 0x0 PUSH1 0xB SLOAD DUP5 PUSH2 0x9FB SWAP2 SWAP1 PUSH2 0x2C0D JUMP JUMPDEST SWAP1 POP DUP1 DUP3 GT PUSH2 0xA0D JUMPI PUSH1 0x0 SWAP2 POP PUSH2 0xA1A JUMP JUMPDEST PUSH2 0xA17 DUP2 DUP4 PUSH2 0x2C0D JUMP JUMPDEST SWAP2 POP JUMPDEST POP JUMPDEST PUSH1 0x9 SWAP2 SWAP1 SWAP2 SSTORE PUSH1 0xB SSTORE POP POP POP POP JUMP JUMPDEST PUSH2 0xA34 DUP2 PUSH2 0x18B7 JUMP JUMPDEST POP JUMP JUMPDEST PUSH2 0x75D DUP3 DUP3 PUSH2 0x1B1F JUMP JUMPDEST PUSH1 0x0 SLOAD PUSH1 0x1 PUSH1 0x1 PUSH1 0xA0 SHL SUB AND CALLER EQ PUSH2 0xA6B JUMPI PUSH1 0x40 MLOAD PUSH3 0x461BCD PUSH1 0xE5 SHL DUP2 MSTORE PUSH1 0x4 ADD PUSH2 0x79F SWAP1 PUSH2 0x29C5 JUMP JUMPDEST PUSH1 0x0 DUP1 SLOAD PUSH1 0x40 MLOAD PUSH1 0x1 PUSH1 0x1 PUSH1 0xA0 SHL SUB SWAP1 SWAP2 AND SWAP1 PUSH32 0x8BE0079C531659141344CD1FD0A4F28419497F9722A3DAAFE3B4186F6B6457E0 SWAP1 DUP4 SWAP1 LOG3 PUSH1 0x0 DUP1 SLOAD PUSH1 0x1 PUSH1 0x1 PUSH1 0xA0 SHL SUB NOT AND SWAP1 SSTORE JUMP JUMPDEST PUSH1 0x1 SLOAD PUSH1 0x40 MLOAD PUSH4 0x70A08231 PUSH1 0xE0 SHL DUP2 MSTORE ADDRESS PUSH1 0x4 DUP3 ADD MSTORE PUSH1 0x0 SWAP2 PUSH1 0x1 PUSH1 0x1 PUSH1 0xA0 SHL SUB AND SWAP1 PUSH4 0x70A08231 SWAP1 PUSH1 0x24 ADD PUSH1 0x20 PUSH1 0x40 MLOAD DUP1 DUP4 SUB DUP2 DUP7 DUP1 EXTCODESIZE ISZERO DUP1 ISZERO PUSH2 0xAF9 JUMPI PUSH1 0x0 DUP1 REVERT JUMPDEST POP GAS STATICCALL ISZERO DUP1 ISZERO PUSH2 0xB0D JUMPI RETURNDATASIZE PUSH1 0x0 DUP1 RETURNDATACOPY RETURNDATASIZE PUSH1 0x0 REVERT JUMPDEST POP POP POP POP PUSH1 0x40 MLOAD RETURNDATASIZE PUSH1 0x1F NOT PUSH1 0x1F DUP3 ADD AND DUP3 ADD DUP1 PUSH1 0x40 MSTORE POP DUP2 ADD SWAP1 PUSH2 0xB31 SWAP2 SWAP1 PUSH2 0x28B7 JUMP JUMPDEST SWAP1 POP SWAP1 JUMP JUMPDEST PUSH1 0x0 PUSH2 0xB31 PUSH2 0x216D JUMP JUMPDEST PUSH1 0x3 SLOAD PUSH1 0x0 SWAP1 NUMBER DUP2 GT ISZERO PUSH2 0xB5E JUMPI PUSH2 0xB58 NUMBER DUP3 PUSH2 0x2C0D JUMP JUMPDEST SWAP2 POP POP SWAP1 JUMP JUMPDEST PUSH1 0x0 SWAP2 POP POP SWAP1 JUMP JUMPDEST PUSH1 0x0 PUSH1 0x6 SLOAD PUSH1 0x0 EQ ISZERO DUP1 ISZERO PUSH2 0xB7D JUMPI POP PUSH1 0x6 SLOAD NUMBER LT ISZERO JUMPDEST ISZERO PUSH2 0xB89 JUMPI POP PUSH1 0x5 SLOAD SWAP1 JUMP JUMPDEST PUSH1 0x2 SLOAD PUSH1 0x40 DUP1 MLOAD PUSH4 0xBD6D894D PUSH1 0xE0 SHL DUP2 MSTORE SWAP1 MLOAD PUSH1 0x0 SWAP3 PUSH1 0x1 PUSH1 0x1 PUSH1 0xA0 SHL SUB AND SWAP2 PUSH4 0xBD6D894D SWAP2 PUSH1 0x4 DUP1 DUP4 ADD SWAP3 PUSH1 0x20 SWAP3 SWAP2 SWAP1 DUP3 SWAP1 SUB ADD DUP2 DUP8 DUP8 DUP1 EXTCODESIZE ISZERO DUP1 ISZERO PUSH2 0xBCF JUMPI PUSH1 0x0 DUP1 REVERT JUMPDEST POP GAS CALL ISZERO DUP1 ISZERO PUSH2 0xBE3 JUMPI RETURNDATASIZE PUSH1 0x0 DUP1 RETURNDATACOPY RETURNDATASIZE PUSH1 0x0 REVERT JUMPDEST POP POP POP POP PUSH1 0x40 MLOAD RETURNDATASIZE PUSH1 0x1F NOT PUSH1 0x1F DUP3 ADD AND DUP3 ADD DUP1 PUSH1 0x40 MSTORE POP DUP2 ADD SWAP1 PUSH2 0xC07 SWAP2 SWAP1 PUSH2 0x28B7 JUMP JUMPDEST SWAP1 POP PUSH1 0x0 PUSH2 0xC13 PUSH2 0xB40 JUMP JUMPDEST SWAP1 POP PUSH1 0x0 PUSH1 0x2 PUSH1 0x0 SWAP1 SLOAD SWAP1 PUSH2 0x100 EXP SWAP1 DIV PUSH1 0x1 PUSH1 0x1 PUSH1 0xA0 SHL SUB AND PUSH1 0x1 PUSH1 0x1 PUSH1 0xA0 SHL SUB AND PUSH4 0xAE9D70B0 PUSH1 0x40 MLOAD DUP2 PUSH4 0xFFFFFFFF AND PUSH1 0xE0 SHL DUP2 MSTORE PUSH1 0x4 ADD PUSH1 0x20 PUSH1 0x40 MLOAD DUP1 DUP4 SUB DUP2 DUP7 DUP1 EXTCODESIZE ISZERO DUP1 ISZERO PUSH2 0xC65 JUMPI PUSH1 0x0 DUP1 REVERT JUMPDEST POP GAS STATICCALL ISZERO DUP1 ISZERO PUSH2 0xC79 JUMPI RETURNDATASIZE PUSH1 0x0 DUP1 RETURNDATACOPY RETURNDATASIZE PUSH1 0x0 REVERT JUMPDEST POP POP POP POP PUSH1 0x40 MLOAD RETURNDATASIZE PUSH1 0x1F NOT PUSH1 0x1F DUP3 ADD AND DUP3 ADD DUP1 PUSH1 0x40 MSTORE POP DUP2 ADD SWAP1 PUSH2 0xC9D SWAP2 SWAP1 PUSH2 0x28B7 JUMP JUMPDEST SWAP1 POP PUSH8 0xDE0B6B3A7640000 DUP3 PUSH2 0xCB3 DUP4 DUP7 PUSH2 0x2BAF JUMP JUMPDEST PUSH2 0xCBD SWAP2 SWAP1 PUSH2 0x2BAF JUMP JUMPDEST PUSH2 0xCC7 SWAP2 SWAP1 PUSH2 0x2B18 JUMP JUMPDEST PUSH2 0xCD1 SWAP1 DUP5 PUSH2 0x2AAD JUMP JUMPDEST SWAP5 SWAP4 POP POP POP POP JUMP JUMPDEST PUSH1 0x0 PUSH2 0xCE6 DUP5 DUP5 DUP5 PUSH2 0x228F JUMP JUMPDEST SWAP1 POP JUMPDEST SWAP4 SWAP3 POP POP POP JUMP JUMPDEST PUSH1 0x0 SLOAD PUSH1 0x1 PUSH1 0x1 PUSH1 0xA0 SHL SUB AND CALLER EQ PUSH2 0xD1A JUMPI PUSH1 0x40 MLOAD PUSH3 0x461BCD PUSH1 0xE5 SHL DUP2 MSTORE PUSH1 0x4 ADD PUSH2 0x79F SWAP1 PUSH2 0x29C5 JUMP JUMPDEST PUSH1 0x1 PUSH1 0x1 PUSH1 0xA0 SHL SUB DUP2 AND PUSH2 0xD7F JUMPI PUSH1 0x40 MLOAD PUSH3 0x461BCD PUSH1 0xE5 SHL DUP2 MSTORE PUSH1 0x20 PUSH1 0x4 DUP3 ADD MSTORE PUSH1 0x26 PUSH1 0x24 DUP3 ADD MSTORE PUSH32 0x4F776E61626C653A206E6577206F776E657220697320746865207A65726F2061 PUSH1 0x44 DUP3 ADD MSTORE PUSH6 0x646472657373 PUSH1 0xD0 SHL PUSH1 0x64 DUP3 ADD MSTORE PUSH1 0x84 ADD PUSH2 0x79F JUMP JUMPDEST PUSH1 0x0 DUP1 SLOAD PUSH1 0x40 MLOAD PUSH1 0x1 PUSH1 0x1 PUSH1 0xA0 SHL SUB DUP1 DUP6 AND SWAP4 SWAP3 AND SWAP2 PUSH32 0x8BE0079C531659141344CD1FD0A4F28419497F9722A3DAAFE3B4186F6B6457E0 SWAP2 LOG3 PUSH1 0x0 DUP1 SLOAD PUSH1 0x1 PUSH1 0x1 PUSH1 0xA0 SHL SUB NOT AND PUSH1 0x1 PUSH1 0x1 PUSH1 0xA0 SHL SUB SWAP3 SWAP1 SWAP3 AND SWAP2 SWAP1 SWAP2 OR SWAP1 SSTORE JUMP JUMPDEST PUSH2 0x75D DUP3 DUP3 PUSH2 0x23D8 JUMP JUMPDEST PUSH1 0x0 DUP3 GT PUSH2 0xDF1 JUMPI PUSH1 0x0 DUP1 REVERT JUMPDEST PUSH1 0x0 CALLER PUSH1 0x2 SLOAD PUSH1 0x40 MLOAD PUSH4 0x70A08231 PUSH1 0xE0 SHL DUP2 MSTORE ADDRESS PUSH1 0x4 DUP3 ADD MSTORE SWAP2 SWAP3 POP PUSH1 0x0 SWAP2 PUSH1 0x1 PUSH1 0x1 PUSH1 0xA0 SHL SUB SWAP1 SWAP2 AND SWAP1 PUSH4 0x70A08231 SWAP1 PUSH1 0x24 ADD PUSH1 0x20 PUSH1 0x40 MLOAD DUP1 DUP4 SUB DUP2 DUP7 DUP1 EXTCODESIZE ISZERO DUP1 ISZERO PUSH2 0xE3D JUMPI PUSH1 0x0 DUP1 REVERT JUMPDEST POP GAS STATICCALL ISZERO DUP1 ISZERO PUSH2 0xE51 JUMPI RETURNDATASIZE PUSH1 0x0 DUP1 RETURNDATACOPY RETURNDATASIZE PUSH1 0x0 REVERT JUMPDEST POP POP POP POP PUSH1 0x40 MLOAD RETURNDATASIZE PUSH1 0x1F NOT PUSH1 0x1F DUP3 ADD AND DUP3 ADD DUP1 PUSH1 0x40 MSTORE POP DUP2 ADD SWAP1 PUSH2 0xE75 SWAP2 SWAP1 PUSH2 0x28B7 JUMP JUMPDEST PUSH1 0x1 SLOAD PUSH1 0x40 MLOAD PUSH4 0x70A08231 PUSH1 0xE0 SHL DUP2 MSTORE ADDRESS PUSH1 0x4 DUP3 ADD MSTORE SWAP2 SWAP3 POP PUSH1 0x0 SWAP2 PUSH1 0x1 PUSH1 0x1 PUSH1 0xA0 SHL SUB SWAP1 SWAP2 AND SWAP1 PUSH4 0x70A08231 SWAP1 PUSH1 0x24 ADD PUSH1 0x20 PUSH1 0x40 MLOAD DUP1 DUP4 SUB DUP2 DUP7 DUP1 EXTCODESIZE ISZERO DUP1 ISZERO PUSH2 0xEBE JUMPI PUSH1 0x0 DUP1 REVERT JUMPDEST POP GAS STATICCALL ISZERO DUP1 ISZERO PUSH2 0xED2 JUMPI RETURNDATASIZE PUSH1 0x0 DUP1 RETURNDATACOPY RETURNDATASIZE PUSH1 0x0 REVERT JUMPDEST POP POP POP POP PUSH1 0x40 MLOAD RETURNDATASIZE PUSH1 0x1F NOT PUSH1 0x1F DUP3 ADD AND DUP3 ADD DUP1 PUSH1 0x40 MSTORE POP DUP2 ADD SWAP1 PUSH2 0xEF6 SWAP2 SWAP1 PUSH2 0x28B7 JUMP JUMPDEST PUSH1 0x1 SLOAD SWAP1 SWAP2 POP PUSH1 0x1 PUSH1 0x1 PUSH1 0xA0 SHL SUB DUP6 DUP2 AND SWAP2 AND EQ ISZERO PUSH2 0xF9D JUMPI PUSH1 0x2 SLOAD PUSH1 0x40 MLOAD PUSH4 0x852A12E3 PUSH1 0xE0 SHL DUP2 MSTORE PUSH1 0x4 DUP2 ADD DUP8 SWAP1 MSTORE PUSH1 0x1 PUSH1 0x1 PUSH1 0xA0 SHL SUB SWAP1 SWAP2 AND SWAP1 PUSH4 0x852A12E3 SWAP1 PUSH1 0x24 ADD JUMPDEST PUSH1 0x20 PUSH1 0x40 MLOAD DUP1 DUP4 SUB DUP2 PUSH1 0x0 DUP8 DUP1 EXTCODESIZE ISZERO DUP1 ISZERO PUSH2 0xF56 JUMPI PUSH1 0x0 DUP1 REVERT JUMPDEST POP GAS CALL ISZERO DUP1 ISZERO PUSH2 0xF6A JUMPI RETURNDATASIZE PUSH1 0x0 DUP1 RETURNDATACOPY RETURNDATASIZE PUSH1 0x0 REVERT JUMPDEST POP POP POP POP PUSH1 0x40 MLOAD RETURNDATASIZE PUSH1 0x1F NOT PUSH1 0x1F DUP3 ADD AND DUP3 ADD DUP1 PUSH1 0x40 MSTORE POP DUP2 ADD SWAP1 PUSH2 0xF8E SWAP2 SWAP1 PUSH2 0x28B7 JUMP JUMPDEST ISZERO PUSH2 0xF98 JUMPI PUSH1 0x0 DUP1 REVERT JUMPDEST PUSH2 0xFFD JUMP JUMPDEST PUSH1 0x2 SLOAD PUSH1 0x1 PUSH1 0x1 PUSH1 0xA0 SHL SUB DUP6 DUP2 AND SWAP2 AND EQ ISZERO PUSH2 0xFE4 JUMPI PUSH1 0x2 SLOAD PUSH1 0x40 MLOAD PUSH4 0xDB006A75 PUSH1 0xE0 SHL DUP2 MSTORE PUSH1 0x4 DUP2 ADD DUP8 SWAP1 MSTORE PUSH1 0x1 PUSH1 0x1 PUSH1 0xA0 SHL SUB SWAP1 SWAP2 AND SWAP1 PUSH4 0xDB006A75 SWAP1 PUSH1 0x24 ADD PUSH2 0xF3C JUMP JUMPDEST PUSH1 0x40 MLOAD PUSH4 0x7401D931 PUSH1 0xE0 SHL DUP2 MSTORE PUSH1 0x4 ADD PUSH1 0x40 MLOAD DUP1 SWAP2 SUB SWAP1 REVERT JUMPDEST PUSH1 0x2 SLOAD PUSH1 0x40 MLOAD PUSH4 0x70A08231 PUSH1 0xE0 SHL DUP2 MSTORE ADDRESS PUSH1 0x4 DUP3 ADD MSTORE PUSH1 0x0 SWAP2 PUSH1 0x1 PUSH1 0x1 PUSH1 0xA0 SHL SUB AND SWAP1 PUSH4 0x70A08231 SWAP1 PUSH1 0x24 ADD PUSH1 0x20 PUSH1 0x40 MLOAD DUP1 DUP4 SUB DUP2 DUP7 DUP1 EXTCODESIZE ISZERO DUP1 ISZERO PUSH2 0x1041 JUMPI PUSH1 0x0 DUP1 REVERT JUMPDEST POP GAS STATICCALL ISZERO DUP1 ISZERO PUSH2 0x1055 JUMPI RETURNDATASIZE PUSH1 0x0 DUP1 RETURNDATACOPY RETURNDATASIZE PUSH1 0x0 REVERT JUMPDEST POP POP POP POP PUSH1 0x40 MLOAD RETURNDATASIZE PUSH1 0x1F NOT PUSH1 0x1F DUP3 ADD AND DUP3 ADD DUP1 PUSH1 0x40 MSTORE POP DUP2 ADD SWAP1 PUSH2 0x1079 SWAP2 SWAP1 PUSH2 0x28B7 JUMP JUMPDEST PUSH2 0x1083 SWAP1 DUP5 PUSH2 0x2C0D JUMP JUMPDEST PUSH1 0x1 SLOAD PUSH1 0x40 MLOAD PUSH4 0x70A08231 PUSH1 0xE0 SHL DUP2 MSTORE ADDRESS PUSH1 0x4 DUP3 ADD MSTORE SWAP2 SWAP3 POP PUSH1 0x0 SWAP2 DUP5 SWAP2 PUSH1 0x1 PUSH1 0x1 PUSH1 0xA0 SHL SUB AND SWAP1 PUSH4 0x70A08231 SWAP1 PUSH1 0x24 ADD PUSH1 0x20 PUSH1 0x40 MLOAD DUP1 DUP4 SUB DUP2 DUP7 DUP1 EXTCODESIZE ISZERO DUP1 ISZERO PUSH2 0x10CC JUMPI PUSH1 0x0 DUP1 REVERT JUMPDEST POP GAS STATICCALL ISZERO DUP1 ISZERO PUSH2 0x10E0 JUMPI RETURNDATASIZE PUSH1 0x0 DUP1 RETURNDATACOPY RETURNDATASIZE PUSH1 0x0 REVERT JUMPDEST POP POP POP POP PUSH1 0x40 MLOAD RETURNDATASIZE PUSH1 0x1F NOT PUSH1 0x1F DUP3 ADD AND DUP3 ADD DUP1 PUSH1 0x40 MSTORE POP DUP2 ADD SWAP1 PUSH2 0x1104 SWAP2 SWAP1 PUSH2 0x28B7 JUMP JUMPDEST PUSH2 0x110E SWAP2 SWAP1 PUSH2 0x2C0D JUMP JUMPDEST PUSH1 0x1 PUSH1 0x1 PUSH1 0xA0 SHL SUB DUP7 AND PUSH1 0x0 SWAP1 DUP2 MSTORE PUSH1 0x7 PUSH1 0x20 SWAP1 DUP2 MSTORE PUSH1 0x40 DUP1 DUP4 KECCAK256 DUP2 MLOAD PUSH1 0x60 DUP2 ADD DUP4 MSTORE DUP2 SLOAD DUP1 DUP3 MSTORE PUSH1 0x1 DUP4 ADD SLOAD SWAP5 DUP3 ADD SWAP5 SWAP1 SWAP5 MSTORE PUSH1 0x2 SWAP1 SWAP2 ADD SLOAD SWAP2 DUP2 ADD SWAP2 SWAP1 SWAP2 MSTORE SWAP3 SWAP4 POP PUSH2 0x115D SWAP1 DUP6 SWAP1 PUSH2 0x2C0D JUMP JUMPDEST SWAP1 POP PUSH1 0x0 PUSH1 0x2 PUSH1 0x0 SWAP1 SLOAD SWAP1 PUSH2 0x100 EXP SWAP1 DIV PUSH1 0x1 PUSH1 0x1 PUSH1 0xA0 SHL SUB AND PUSH1 0x1 PUSH1 0x1 PUSH1 0xA0 SHL SUB AND PUSH4 0xBD6D894D PUSH1 0x40 MLOAD DUP2 PUSH4 0xFFFFFFFF AND PUSH1 0xE0 SHL DUP2 MSTORE PUSH1 0x4 ADD PUSH1 0x20 PUSH1 0x40 MLOAD DUP1 DUP4 SUB DUP2 PUSH1 0x0 DUP8 DUP1 EXTCODESIZE ISZERO DUP1 ISZERO PUSH2 0x11B1 JUMPI PUSH1 0x0 DUP1 REVERT JUMPDEST POP GAS CALL ISZERO DUP1 ISZERO PUSH2 0x11C5 JUMPI RETURNDATASIZE PUSH1 0x0 DUP1 RETURNDATACOPY RETURNDATASIZE PUSH1 0x0 REVERT JUMPDEST POP POP POP POP PUSH1 0x40 MLOAD RETURNDATASIZE PUSH1 0x1F NOT PUSH1 0x1F DUP3 ADD AND DUP3 ADD DUP1 PUSH1 0x40 MSTORE POP DUP2 ADD SWAP1 PUSH2 0x11E9 SWAP2 SWAP1 PUSH2 0x28B7 JUMP JUMPDEST SWAP1 POP PUSH2 0x11FD DUP4 PUSH2 0x11F7 PUSH2 0xB66 JUMP JUMPDEST DUP4 PUSH2 0x228F JUMP JUMPDEST DUP3 LT ISZERO PUSH2 0x121C JUMPI PUSH1 0x40 MLOAD PUSH3 0x461BCD PUSH1 0xE5 SHL DUP2 MSTORE PUSH1 0x4 ADD PUSH2 0x79F SWAP1 PUSH2 0x2A3F JUMP JUMPDEST PUSH1 0x1 SLOAD PUSH1 0x40 MLOAD PUSH4 0xA9059CBB PUSH1 0xE0 SHL DUP2 MSTORE PUSH1 0x1 PUSH1 0x1 PUSH1 0xA0 SHL SUB DUP11 DUP2 AND PUSH1 0x4 DUP4 ADD MSTORE PUSH1 0x24 DUP3 ADD DUP8 SWAP1 MSTORE SWAP1 SWAP2 AND SWAP1 PUSH4 0xA9059CBB SWAP1 PUSH1 0x44 ADD PUSH1 0x20 PUSH1 0x40 MLOAD DUP1 DUP4 SUB DUP2 PUSH1 0x0 DUP8 DUP1 EXTCODESIZE ISZERO DUP1 ISZERO PUSH2 0x126A JUMPI PUSH1 0x0 DUP1 REVERT JUMPDEST POP GAS CALL ISZERO DUP1 ISZERO PUSH2 0x127E JUMPI RETURNDATASIZE PUSH1 0x0 DUP1 RETURNDATACOPY RETURNDATASIZE PUSH1 0x0 REVERT JUMPDEST POP POP POP POP PUSH1 0x40 MLOAD RETURNDATASIZE PUSH1 0x1F NOT PUSH1 0x1F DUP3 ADD AND DUP3 ADD DUP1 PUSH1 0x40 MSTORE POP DUP2 ADD SWAP1 PUSH2 0x12A2 SWAP2 SWAP1 PUSH2 0x27FD JUMP JUMPDEST PUSH2 0x12E4 JUMPI PUSH1 0x40 MLOAD PUSH3 0x461BCD PUSH1 0xE5 SHL DUP2 MSTORE PUSH1 0x20 PUSH1 0x4 DUP3 ADD MSTORE PUSH1 0x13 PUSH1 0x24 DUP3 ADD MSTORE PUSH19 0x1D1C985B9CD9995C881BDD5D0819985A5B1959 PUSH1 0x6A SHL PUSH1 0x44 DUP3 ADD MSTORE PUSH1 0x64 ADD PUSH2 0x79F JUMP JUMPDEST PUSH1 0x1 PUSH1 0x1 PUSH1 0xA0 SHL SUB DUP9 AND PUSH1 0x0 SWAP1 DUP2 MSTORE PUSH1 0x7 PUSH1 0x20 MSTORE PUSH1 0x40 DUP2 KECCAK256 DUP4 SWAP1 SSTORE PUSH1 0x11 DUP1 SLOAD DUP8 SWAP3 SWAP1 PUSH2 0x1311 SWAP1 DUP5 SWAP1 PUSH2 0x2AAD JUMP JUMPDEST SWAP1 SWAP2 SSTORE POP POP DUP2 PUSH2 0x132F JUMPI PUSH1 0x4 PUSH1 0x0 DUP2 SLOAD PUSH2 0x132A SWAP1 PUSH2 0x2C24 JUMP JUMPDEST SWAP1 SWAP2 SSTORE POP JUMPDEST DUP8 PUSH1 0x1 PUSH1 0x1 PUSH1 0xA0 SHL SUB AND PUSH32 0x373E649C2CD6407BD569D5C66304CCE4B4977C361734B811045F83C7BFE8C8B DUP11 DUP13 DUP9 DUP6 PUSH1 0x40 MLOAD PUSH2 0x136E SWAP5 SWAP4 SWAP3 SWAP2 SWAP1 PUSH2 0x294C JUMP JUMPDEST PUSH1 0x40 MLOAD DUP1 SWAP2 SUB SWAP1 LOG2 POP POP POP POP POP POP POP POP POP POP JUMP JUMPDEST PUSH1 0x0 PUSH1 0x6 SLOAD GT PUSH2 0x1391 JUMPI PUSH1 0x0 DUP1 REVERT JUMPDEST PUSH1 0x0 PUSH1 0x5 SLOAD GT PUSH2 0x13A0 JUMPI PUSH1 0x0 DUP1 REVERT JUMPDEST CALLER PUSH1 0x0 DUP2 DUP2 MSTORE PUSH1 0x7 PUSH1 0x20 SWAP1 DUP2 MSTORE PUSH1 0x40 SWAP2 DUP3 SWAP1 KECCAK256 DUP3 MLOAD PUSH1 0x60 DUP2 ADD DUP5 MSTORE DUP2 SLOAD DUP2 MSTORE PUSH1 0x1 DUP3 ADD SLOAD SWAP3 DUP2 ADD DUP4 SWAP1 MSTORE PUSH1 0x2 SWAP1 SWAP2 ADD SLOAD SWAP3 DUP2 ADD SWAP3 SWAP1 SWAP3 MSTORE PUSH2 0x13DF JUMPI POP POP JUMP JUMPDEST PUSH1 0x0 DUP2 PUSH1 0x20 ADD MLOAD SLT PUSH2 0x1433 JUMPI PUSH1 0x40 MLOAD PUSH3 0x461BCD PUSH1 0xE5 SHL DUP2 MSTORE PUSH1 0x20 PUSH1 0x4 DUP3 ADD MSTORE PUSH1 0x1B PUSH1 0x24 DUP3 ADD MSTORE PUSH32 0x6E6F2073686F727420706F736974696F6E20746F20736574746C650000000000 PUSH1 0x44 DUP3 ADD MSTORE PUSH1 0x64 ADD PUSH2 0x79F JUMP JUMPDEST PUSH1 0x20 DUP2 ADD MLOAD PUSH1 0x5 SLOAD PUSH1 0x40 DUP4 ADD MLOAD PUSH1 0x0 SWAP3 SWAP2 SWAP1 PUSH2 0x144F SWAP1 DUP4 PUSH2 0x2B2C JUMP JUMPDEST PUSH2 0x1459 SWAP2 SWAP1 PUSH2 0x2AEA JUMP JUMPDEST PUSH2 0x1463 SWAP2 SWAP1 PUSH2 0x2BCE JUMP JUMPDEST SWAP1 POP PUSH1 0x0 DUP2 SLT ISZERO PUSH2 0x148E JUMPI PUSH2 0x1477 DUP2 PUSH2 0x2C56 JUMP JUMPDEST DUP3 MLOAD DUP4 SWAP1 PUSH2 0x1486 SWAP1 DUP4 SWAP1 PUSH2 0x2C0D JUMP JUMPDEST SWAP1 MSTORE POP PUSH2 0x14A4 JUMP JUMPDEST DUP1 DUP3 PUSH1 0x0 ADD DUP2 DUP2 MLOAD PUSH2 0x14A0 SWAP2 SWAP1 PUSH2 0x2AAD JUMP JUMPDEST SWAP1 MSTORE POP JUMPDEST DUP1 PUSH1 0x12 PUSH1 0x0 DUP3 DUP3 SLOAD PUSH2 0x14B6 SWAP2 SWAP1 PUSH2 0x2A6C JUMP JUMPDEST SWAP1 SWAP2 SSTORE POP POP PUSH1 0x20 DUP3 ADD MLOAD PUSH1 0xB DUP1 SLOAD PUSH1 0x0 SWAP1 PUSH2 0x14D2 SWAP1 DUP5 SWAP1 PUSH2 0x2C0D JUMP JUMPDEST SWAP1 SWAP2 SSTORE POP POP PUSH1 0x20 DUP3 ADD MLOAD PUSH1 0xE DUP1 SLOAD PUSH1 0x0 SWAP1 PUSH2 0x14EE SWAP1 DUP5 SWAP1 PUSH2 0x2AAD JUMP JUMPDEST SWAP1 SWAP2 SSTORE POP POP PUSH1 0x5 SLOAD PUSH1 0x20 DUP4 ADD MLOAD PUSH2 0x1505 SWAP2 SWAP1 PUSH2 0x2BAF JUMP JUMPDEST PUSH1 0xF PUSH1 0x0 DUP3 DUP3 SLOAD PUSH2 0x1516 SWAP2 SWAP1 PUSH2 0x2AAD JUMP JUMPDEST SWAP1 SWAP2 SSTORE POP POP PUSH1 0x0 PUSH1 0x20 DUP1 DUP5 ADD DUP3 DUP2 MSTORE PUSH1 0x40 DUP1 DUP7 ADD DUP5 DUP2 MSTORE PUSH1 0x1 PUSH1 0x1 PUSH1 0xA0 SHL SUB SWAP1 SWAP8 AND DUP5 MSTORE PUSH1 0x7 SWAP1 SWAP3 MSTORE SWAP2 KECCAK256 SWAP3 MLOAD DUP4 SSTORE MLOAD PUSH1 0x1 DUP4 ADD SSTORE POP SWAP1 MLOAD PUSH1 0x2 SWAP1 SWAP2 ADD SSTORE JUMP JUMPDEST PUSH1 0x3 SLOAD CALLER SWAP1 NUMBER LT PUSH2 0x1597 JUMPI PUSH1 0x40 MLOAD PUSH3 0x461BCD PUSH1 0xE5 SHL DUP2 MSTORE PUSH1 0x20 PUSH1 0x4 DUP3 ADD MSTORE PUSH1 0xB PUSH1 0x24 DUP3 ADD MSTORE PUSH11 0x7061737420657870697279 PUSH1 0xA8 SHL PUSH1 0x44 DUP3 ADD MSTORE PUSH1 0x64 ADD PUSH2 0x79F JUMP JUMPDEST PUSH1 0x0 DUP4 GT PUSH2 0x15E7 JUMPI PUSH1 0x40 MLOAD PUSH3 0x461BCD PUSH1 0xE5 SHL DUP2 MSTORE PUSH1 0x20 PUSH1 0x4 DUP3 ADD MSTORE PUSH1 0x1E PUSH1 0x24 DUP3 ADD MSTORE PUSH32 0x73697A65206D7573742062652067726561746572207468616E207A65726F0000 PUSH1 0x44 DUP3 ADD MSTORE PUSH1 0x64 ADD PUSH2 0x79F JUMP JUMPDEST PUSH1 0x0 DUP3 GT PUSH2 0x1607 JUMPI PUSH1 0x40 MLOAD PUSH3 0x461BCD PUSH1 0xE5 SHL DUP2 MSTORE PUSH1 0x4 ADD PUSH2 0x79F SWAP1 PUSH2 0x29FA JUMP JUMPDEST PUSH1 0x1 PUSH1 0x1 PUSH1 0xA0 SHL SUB DUP2 AND PUSH1 0x0 SWAP1 DUP2 MSTORE PUSH1 0x7 PUSH1 0x20 SWAP1 DUP2 MSTORE PUSH1 0x40 SWAP2 DUP3 SWAP1 KECCAK256 DUP3 MLOAD PUSH1 0x60 DUP2 ADD DUP5 MSTORE DUP2 SLOAD DUP2 MSTORE PUSH1 0x1 DUP3 ADD SLOAD SWAP3 DUP2 ADD DUP4 SWAP1 MSTORE PUSH1 0x2 SWAP1 SWAP2 ADD SLOAD SWAP3 DUP2 ADD SWAP3 SWAP1 SWAP3 MSTORE ISZERO PUSH2 0x168C JUMPI PUSH1 0x40 MLOAD PUSH3 0x461BCD PUSH1 0xE5 SHL DUP2 MSTORE PUSH1 0x20 PUSH1 0x4 DUP3 ADD MSTORE PUSH1 0x15 PUSH1 0x24 DUP3 ADD MSTORE PUSH21 0x3837B9B4BA34B7B71030B63932B0B23C9037B832B7 PUSH1 0x59 SHL PUSH1 0x44 DUP3 ADD MSTORE PUSH1 0x64 ADD PUSH2 0x79F JUMP JUMPDEST PUSH1 0x9 SLOAD DUP5 GT ISZERO PUSH2 0x16DE JUMPI PUSH1 0x40 MLOAD PUSH3 0x461BCD PUSH1 0xE5 SHL DUP2 MSTORE PUSH1 0x20 PUSH1 0x4 DUP3 ADD MSTORE PUSH1 0x1B PUSH1 0x24 DUP3 ADD MSTORE PUSH32 0x696E73756666696369656E742073697A6520617661696C61626C650000000000 PUSH1 0x44 DUP3 ADD MSTORE PUSH1 0x64 ADD PUSH2 0x79F JUMP JUMPDEST PUSH2 0x16E7 DUP5 PUSH2 0x2C56 JUMP JUMPDEST PUSH1 0x20 DUP3 ADD DUP2 SWAP1 MSTORE PUSH1 0x0 SGT PUSH2 0x1728 JUMPI PUSH1 0x40 MLOAD PUSH3 0x461BCD PUSH1 0xE5 SHL DUP2 MSTORE PUSH1 0x20 PUSH1 0x4 DUP3 ADD MSTORE PUSH1 0x8 PUSH1 0x24 DUP3 ADD MSTORE PUSH8 0x6F766572666C6F77 PUSH1 0xC0 SHL PUSH1 0x44 DUP3 ADD MSTORE PUSH1 0x64 ADD PUSH2 0x79F JUMP JUMPDEST PUSH1 0x8 SLOAD DUP4 GT ISZERO PUSH2 0x1774 JUMPI PUSH1 0x40 MLOAD PUSH3 0x461BCD PUSH1 0xE5 SHL DUP2 MSTORE PUSH1 0x20 PUSH1 0x4 DUP3 ADD MSTORE PUSH1 0x17 PUSH1 0x24 DUP3 ADD MSTORE PUSH23 0x1B1A5B5A5D081C1C9A58D9481B9BDD081B585D18DA1959 PUSH1 0x4A SHL PUSH1 0x44 DUP3 ADD MSTORE PUSH1 0x64 ADD PUSH2 0x79F JUMP JUMPDEST PUSH1 0x8 SLOAD PUSH1 0x40 DUP1 DUP4 ADD SWAP2 SWAP1 SWAP2 MSTORE PUSH1 0x2 SLOAD DUP2 MLOAD PUSH4 0xBD6D894D PUSH1 0xE0 SHL DUP2 MSTORE SWAP2 MLOAD PUSH1 0x0 SWAP3 PUSH1 0x1 PUSH1 0x1 PUSH1 0xA0 SHL SUB SWAP1 SWAP3 AND SWAP2 PUSH4 0xBD6D894D SWAP2 PUSH1 0x4 DUP1 DUP4 ADD SWAP3 PUSH1 0x20 SWAP3 SWAP2 SWAP1 DUP3 SWAP1 SUB ADD DUP2 DUP8 DUP8 DUP1 EXTCODESIZE ISZERO DUP1 ISZERO PUSH2 0x17C6 JUMPI PUSH1 0x0 DUP1 REVERT JUMPDEST POP GAS CALL ISZERO DUP1 ISZERO PUSH2 0x17DA JUMPI RETURNDATASIZE PUSH1 0x0 DUP1 RETURNDATACOPY RETURNDATASIZE PUSH1 0x0 REVERT JUMPDEST POP POP POP POP PUSH1 0x40 MLOAD RETURNDATASIZE PUSH1 0x1F NOT PUSH1 0x1F DUP3 ADD AND DUP3 ADD DUP1 PUSH1 0x40 MSTORE POP DUP2 ADD SWAP1 PUSH2 0x17FE SWAP2 SWAP1 PUSH2 0x28B7 JUMP JUMPDEST SWAP1 POP PUSH2 0x180C DUP3 PUSH2 0x11F7 PUSH2 0xB66 JUMP JUMPDEST DUP3 MLOAD LT ISZERO PUSH2 0x182C JUMPI PUSH1 0x40 MLOAD PUSH3 0x461BCD PUSH1 0xE5 SHL DUP2 MSTORE PUSH1 0x4 ADD PUSH2 0x79F SWAP1 PUSH2 0x2A3F JUMP JUMPDEST DUP5 PUSH1 0x9 PUSH1 0x0 DUP3 DUP3 SLOAD PUSH2 0x183E SWAP2 SWAP1 PUSH2 0x2C0D JUMP JUMPDEST SWAP3 POP POP DUP2 SWAP1 SSTORE POP DUP5 PUSH1 0xC PUSH1 0x0 DUP3 DUP3 SLOAD PUSH2 0x1857 SWAP2 SWAP1 PUSH2 0x2AAD JUMP JUMPDEST SWAP1 SWAP2 SSTORE POP POP PUSH1 0x8 SLOAD PUSH2 0x1869 SWAP1 DUP7 PUSH2 0x2BAF JUMP JUMPDEST PUSH1 0xD PUSH1 0x0 DUP3 DUP3 SLOAD PUSH2 0x187A SWAP2 SWAP1 PUSH2 0x2AAD JUMP JUMPDEST SWAP1 SWAP2 SSTORE POP POP POP PUSH1 0x1 PUSH1 0x1 PUSH1 0xA0 SHL SUB SWAP1 SWAP2 AND PUSH1 0x0 SWAP1 DUP2 MSTORE PUSH1 0x7 PUSH1 0x20 SWAP1 DUP2 MSTORE PUSH1 0x40 SWAP2 DUP3 SWAP1 KECCAK256 DUP4 MLOAD DUP2 SSTORE SWAP1 DUP4 ADD MLOAD PUSH1 0x1 DUP3 ADD SSTORE SWAP2 ADD MLOAD PUSH1 0x2 SWAP1 SWAP2 ADD SSTORE POP POP JUMP JUMPDEST PUSH1 0x0 DUP2 GT PUSH2 0x18C4 JUMPI PUSH1 0x0 DUP1 REVERT JUMPDEST PUSH1 0x2 DUP1 SLOAD CALLER PUSH1 0x0 DUP2 DUP2 MSTORE PUSH1 0x7 PUSH1 0x20 SWAP1 DUP2 MSTORE PUSH1 0x40 DUP1 DUP4 KECCAK256 DUP2 MLOAD PUSH1 0x60 DUP2 ADD DUP4 MSTORE DUP2 SLOAD DUP1 DUP3 MSTORE PUSH1 0x1 DUP4 ADD SLOAD SWAP5 DUP3 ADD SWAP5 SWAP1 SWAP5 MSTORE SWAP7 ADD SLOAD SWAP1 DUP7 ADD MSTORE SWAP2 SWAP4 PUSH1 0x1 PUSH1 0x1 PUSH1 0xA0 SHL SUB SWAP1 SWAP4 AND SWAP3 DUP6 SWAP3 SWAP1 SWAP2 SWAP1 PUSH2 0x1918 SWAP1 DUP5 SWAP1 PUSH2 0x2C0D JUMP JUMPDEST SWAP1 POP PUSH1 0x0 DUP5 PUSH1 0x1 PUSH1 0x1 PUSH1 0xA0 SHL SUB AND PUSH4 0xBD6D894D PUSH1 0x40 MLOAD DUP2 PUSH4 0xFFFFFFFF AND PUSH1 0xE0 SHL DUP2 MSTORE PUSH1 0x4 ADD PUSH1 0x20 PUSH1 0x40 MLOAD DUP1 DUP4 SUB DUP2 PUSH1 0x0 DUP8 DUP1 EXTCODESIZE ISZERO DUP1 ISZERO PUSH2 0x1957 JUMPI PUSH1 0x0 DUP1 REVERT JUMPDEST POP GAS CALL ISZERO DUP1 ISZERO PUSH2 0x196B JUMPI RETURNDATASIZE PUSH1 0x0 DUP1 RETURNDATACOPY RETURNDATASIZE PUSH1 0x0 REVERT JUMPDEST POP POP POP POP PUSH1 0x40 MLOAD RETURNDATASIZE PUSH1 0x1F NOT PUSH1 0x1F DUP3 ADD AND DUP3 ADD DUP1 PUSH1 0x40 MSTORE POP DUP2 ADD SWAP1 PUSH2 0x198F SWAP2 SWAP1 PUSH2 0x28B7 JUMP JUMPDEST SWAP1 POP PUSH2 0x199D DUP4 PUSH2 0x11F7 PUSH2 0xB66 JUMP JUMPDEST DUP3 LT ISZERO PUSH2 0x19BC JUMPI PUSH1 0x40 MLOAD PUSH3 0x461BCD PUSH1 0xE5 SHL DUP2 MSTORE PUSH1 0x4 ADD PUSH2 0x79F SWAP1 PUSH2 0x2A3F JUMP JUMPDEST PUSH1 0x1 SLOAD PUSH1 0x40 MLOAD PUSH4 0xA9059CBB PUSH1 0xE0 SHL DUP2 MSTORE PUSH1 0x1 PUSH1 0x1 PUSH1 0xA0 SHL SUB DUP9 DUP2 AND PUSH1 0x4 DUP4 ADD MSTORE PUSH1 0x24 DUP3 ADD DUP8 SWAP1 MSTORE SWAP1 SWAP2 AND SWAP1 PUSH4 0xA9059CBB SWAP1 PUSH1 0x44 ADD PUSH1 0x20 PUSH1 0x40 MLOAD DUP1 DUP4 SUB DUP2 PUSH1 0x0 DUP8 DUP1 EXTCODESIZE ISZERO DUP1 ISZERO PUSH2 0x1A0A JUMPI PUSH1 0x0 DUP1 REVERT JUMPDEST POP GAS CALL ISZERO DUP1 ISZERO PUSH2 0x1A1E JUMPI RETURNDATASIZE PUSH1 0x0 DUP1 RETURNDATACOPY RETURNDATASIZE PUSH1 0x0 REVERT JUMPDEST POP POP POP POP PUSH1 0x40 MLOAD RETURNDATASIZE PUSH1 0x1F NOT PUSH1 0x1F DUP3 ADD AND DUP3 ADD DUP1 PUSH1 0x40 MSTORE POP DUP2 ADD SWAP1 PUSH2 0x1A42 SWAP2 SWAP1 PUSH2 0x27FD JUMP JUMPDEST PUSH2 0x1A84 JUMPI PUSH1 0x40 MLOAD PUSH3 0x461BCD PUSH1 0xE5 SHL DUP2 MSTORE PUSH1 0x20 PUSH1 0x4 DUP3 ADD MSTORE PUSH1 0x13 PUSH1 0x24 DUP3 ADD MSTORE PUSH19 0x1D1C985B9CD9995C881BDD5D0819985A5B1959 PUSH1 0x6A SHL PUSH1 0x44 DUP3 ADD MSTORE PUSH1 0x64 ADD PUSH2 0x79F JUMP JUMPDEST PUSH1 0x1 PUSH1 0x1 PUSH1 0xA0 SHL SUB DUP7 AND PUSH1 0x0 SWAP1 DUP2 MSTORE PUSH1 0x7 PUSH1 0x20 MSTORE PUSH1 0x40 DUP2 KECCAK256 DUP4 SWAP1 SSTORE PUSH1 0x11 DUP1 SLOAD DUP7 SWAP3 SWAP1 PUSH2 0x1AB1 SWAP1 DUP5 SWAP1 PUSH2 0x2AAD JUMP JUMPDEST SWAP1 SWAP2 SSTORE POP POP DUP2 PUSH2 0x1ACF JUMPI PUSH1 0x4 PUSH1 0x0 DUP2 SLOAD PUSH2 0x1ACA SWAP1 PUSH2 0x2C24 JUMP JUMPDEST SWAP1 SWAP2 SSTORE POP JUMPDEST DUP6 PUSH1 0x1 PUSH1 0x1 PUSH1 0xA0 SHL SUB AND PUSH32 0x373E649C2CD6407BD569D5C66304CCE4B4977C361734B811045F83C7BFE8C8B DUP7 DUP10 DUP8 DUP6 PUSH1 0x40 MLOAD PUSH2 0x1B0E SWAP5 SWAP4 SWAP3 SWAP2 SWAP1 PUSH2 0x294C JUMP JUMPDEST PUSH1 0x40 MLOAD DUP1 SWAP2 SUB SWAP1 LOG2 POP POP POP POP POP POP POP JUMP JUMPDEST PUSH1 0x0 DUP3 GT PUSH2 0x1B5B JUMPI PUSH1 0x40 MLOAD PUSH3 0x461BCD PUSH1 0xE5 SHL DUP2 MSTORE PUSH1 0x20 PUSH1 0x4 DUP3 ADD MSTORE PUSH1 0x9 PUSH1 0x24 DUP3 ADD MSTORE PUSH9 0x6465706F7369743A3 PUSH1 0xBC SHL PUSH1 0x44 DUP3 ADD MSTORE PUSH1 0x64 ADD PUSH2 0x79F JUMP JUMPDEST PUSH1 0x1 SLOAD CALLER SWAP1 DUP4 SWAP1 PUSH1 0x1 PUSH1 0x1 PUSH1 0xA0 SHL SUB DUP5 DUP2 AND SWAP2 AND EQ ISZERO PUSH2 0x1F55 JUMPI PUSH1 0x1 SLOAD PUSH1 0x40 MLOAD PUSH4 0x23B872DD PUSH1 0xE0 SHL DUP2 MSTORE PUSH1 0x1 PUSH1 0x1 PUSH1 0xA0 SHL SUB DUP5 DUP2 AND PUSH1 0x4 DUP4 ADD MSTORE ADDRESS PUSH1 0x24 DUP4 ADD MSTORE PUSH1 0x44 DUP3 ADD DUP8 SWAP1 MSTORE SWAP1 SWAP2 AND SWAP1 PUSH4 0x23B872DD SWAP1 PUSH1 0x64 ADD PUSH1 0x20 PUSH1 0x40 MLOAD DUP1 DUP4 SUB DUP2 PUSH1 0x0 DUP8 DUP1 EXTCODESIZE ISZERO DUP1 ISZERO PUSH2 0x1BC9 JUMPI PUSH1 0x0 DUP1 REVERT JUMPDEST POP GAS CALL ISZERO DUP1 ISZERO PUSH2 0x1BDD JUMPI RETURNDATASIZE PUSH1 0x0 DUP1 RETURNDATACOPY RETURNDATASIZE PUSH1 0x0 REVERT JUMPDEST POP POP POP POP PUSH1 0x40 MLOAD RETURNDATASIZE PUSH1 0x1F NOT PUSH1 0x1F DUP3 ADD AND DUP3 ADD DUP1 PUSH1 0x40 MSTORE POP DUP2 ADD SWAP1 PUSH2 0x1C01 SWAP2 SWAP1 PUSH2 0x27FD JUMP JUMPDEST PUSH2 0x1C39 JUMPI PUSH1 0x40 MLOAD PUSH3 0x461BCD PUSH1 0xE5 SHL DUP2 MSTORE PUSH1 0x20 PUSH1 0x4 DUP3 ADD MSTORE PUSH1 0x9 PUSH1 0x24 DUP3 ADD MSTORE PUSH9 0x6465706F7369743A31 PUSH1 0xB8 SHL PUSH1 0x44 DUP3 ADD MSTORE PUSH1 0x64 ADD PUSH2 0x79F JUMP JUMPDEST PUSH1 0x2 SLOAD PUSH1 0x40 MLOAD PUSH4 0x70A08231 PUSH1 0xE0 SHL DUP2 MSTORE ADDRESS PUSH1 0x4 DUP3 ADD MSTORE PUSH1 0x0 SWAP2 PUSH1 0x1 PUSH1 0x1 PUSH1 0xA0 SHL SUB AND SWAP1 PUSH4 0x70A08231 SWAP1 PUSH1 0x24 ADD PUSH1 0x20 PUSH1 0x40 MLOAD DUP1 DUP4 SUB DUP2 DUP7 DUP1 EXTCODESIZE ISZERO DUP1 ISZERO PUSH2 0x1C7D JUMPI PUSH1 0x0 DUP1 REVERT JUMPDEST POP GAS STATICCALL ISZERO DUP1 ISZERO PUSH2 0x1C91 JUMPI RETURNDATASIZE PUSH1 0x0 DUP1 RETURNDATACOPY RETURNDATASIZE PUSH1 0x0 REVERT JUMPDEST POP POP POP POP PUSH1 0x40 MLOAD RETURNDATASIZE PUSH1 0x1F NOT PUSH1 0x1F DUP3 ADD AND DUP3 ADD DUP1 PUSH1 0x40 MSTORE POP DUP2 ADD SWAP1 PUSH2 0x1CB5 SWAP2 SWAP1 PUSH2 0x28B7 JUMP JUMPDEST PUSH1 0x1 SLOAD PUSH1 0x2 SLOAD PUSH1 0x40 MLOAD PUSH4 0x95EA7B3 PUSH1 0xE0 SHL DUP2 MSTORE PUSH1 0x1 PUSH1 0x1 PUSH1 0xA0 SHL SUB SWAP2 DUP3 AND PUSH1 0x4 DUP3 ADD MSTORE PUSH1 0x24 DUP2 ADD DUP10 SWAP1 MSTORE SWAP3 SWAP4 POP AND SWAP1 PUSH4 0x95EA7B3 SWAP1 PUSH1 0x44 ADD PUSH1 0x20 PUSH1 0x40 MLOAD DUP1 DUP4 SUB DUP2 PUSH1 0x0 DUP8 DUP1 EXTCODESIZE ISZERO DUP1 ISZERO PUSH2 0x1D07 JUMPI PUSH1 0x0 DUP1 REVERT JUMPDEST POP GAS CALL ISZERO DUP1 ISZERO PUSH2 0x1D1B JUMPI RETURNDATASIZE PUSH1 0x0 DUP1 RETURNDATACOPY RETURNDATASIZE PUSH1 0x0 REVERT JUMPDEST POP POP POP POP PUSH1 0x40 MLOAD RETURNDATASIZE PUSH1 0x1F NOT PUSH1 0x1F DUP3 ADD AND DUP3 ADD DUP1 PUSH1 0x40 MSTORE POP DUP2 ADD SWAP1 PUSH2 0x1D3F SWAP2 SWAP1 PUSH2 0x27FD JUMP JUMPDEST PUSH2 0x1D77 JUMPI PUSH1 0x40 MLOAD PUSH3 0x461BCD PUSH1 0xE5 SHL DUP2 MSTORE PUSH1 0x20 PUSH1 0x4 DUP3 ADD MSTORE PUSH1 0x9 PUSH1 0x24 DUP3 ADD MSTORE PUSH9 0x3232B837B9B4BA1D19 PUSH1 0xB9 SHL PUSH1 0x44 DUP3 ADD MSTORE PUSH1 0x64 ADD PUSH2 0x79F JUMP JUMPDEST PUSH1 0x2 SLOAD PUSH1 0x40 MLOAD PUSH4 0x140E25AD PUSH1 0xE3 SHL DUP2 MSTORE PUSH1 0x4 DUP2 ADD DUP8 SWAP1 MSTORE PUSH1 0x0 SWAP2 PUSH1 0x1 PUSH1 0x1 PUSH1 0xA0 SHL SUB AND SWAP1 PUSH4 0xA0712D68 SWAP1 PUSH1 0x24 ADD PUSH1 0x20 PUSH1 0x40 MLOAD DUP1 DUP4 SUB DUP2 PUSH1 0x0 DUP8 DUP1 EXTCODESIZE ISZERO DUP1 ISZERO PUSH2 0x1DBE JUMPI PUSH1 0x0 DUP1 REVERT JUMPDEST POP GAS CALL ISZERO DUP1 ISZERO PUSH2 0x1DD2 JUMPI RETURNDATASIZE PUSH1 0x0 DUP1 RETURNDATACOPY RETURNDATASIZE PUSH1 0x0 REVERT JUMPDEST POP POP POP POP PUSH1 0x40 MLOAD RETURNDATASIZE PUSH1 0x1F NOT PUSH1 0x1F DUP3 ADD AND DUP3 ADD DUP1 PUSH1 0x40 MSTORE POP DUP2 ADD SWAP1 PUSH2 0x1DF6 SWAP2 SWAP1 PUSH2 0x28B7 JUMP JUMPDEST SWAP1 POP DUP1 ISZERO PUSH2 0x1E82 JUMPI PUSH1 0x40 DUP1 MLOAD DUP1 DUP3 ADD DUP3 MSTORE PUSH1 0xB DUP2 MSTORE PUSH10 0x3232B837B9B4BA1D199D PUSH1 0xB1 SHL PUSH1 0x20 DUP3 ADD MSTORE SWAP1 PUSH2 0x1E2D SWAP1 PUSH1 0x1F DUP5 AND SWAP1 PUSH2 0x2AC5 JUMP JUMPDEST PUSH1 0xF8 SHL DUP2 PUSH1 0xA DUP2 MLOAD DUP2 LT PUSH2 0x1E51 JUMPI PUSH4 0x4E487B71 PUSH1 0xE0 SHL PUSH1 0x0 MSTORE PUSH1 0x32 PUSH1 0x4 MSTORE PUSH1 0x24 PUSH1 0x0 REVERT JUMPDEST PUSH1 0x20 ADD ADD SWAP1 PUSH1 0x1 PUSH1 0x1 PUSH1 0xF8 SHL SUB NOT AND SWAP1 DUP2 PUSH1 0x0 BYTE SWAP1 MSTORE8 POP DUP1 PUSH1 0x40 MLOAD PUSH3 0x461BCD PUSH1 0xE5 SHL DUP2 MSTORE PUSH1 0x4 ADD PUSH2 0x79F SWAP2 SWAP1 PUSH2 0x2972 JUMP JUMPDEST POP PUSH1 0x2 SLOAD PUSH1 0x40 MLOAD PUSH4 0x70A08231 PUSH1 0xE0 SHL DUP2 MSTORE ADDRESS PUSH1 0x4 DUP3 ADD MSTORE PUSH1 0x0 SWAP2 PUSH1 0x1 PUSH1 0x1 PUSH1 0xA0 SHL SUB AND SWAP1 PUSH4 0x70A08231 SWAP1 PUSH1 0x24 ADD PUSH1 0x20 PUSH1 0x40 MLOAD DUP1 DUP4 SUB DUP2 DUP7 DUP1 EXTCODESIZE ISZERO DUP1 ISZERO PUSH2 0x1EC7 JUMPI PUSH1 0x0 DUP1 REVERT JUMPDEST POP GAS STATICCALL ISZERO DUP1 ISZERO PUSH2 0x1EDB JUMPI RETURNDATASIZE PUSH1 0x0 DUP1 RETURNDATACOPY RETURNDATASIZE PUSH1 0x0 REVERT JUMPDEST POP POP POP POP PUSH1 0x40 MLOAD RETURNDATASIZE PUSH1 0x1F NOT PUSH1 0x1F DUP3 ADD AND DUP3 ADD DUP1 PUSH1 0x40 MSTORE POP DUP2 ADD SWAP1 PUSH2 0x1EFF SWAP2 SWAP1 PUSH2 0x28B7 JUMP JUMPDEST SWAP1 POP PUSH1 0x0 PUSH2 0x1F0D DUP4 DUP4 PUSH2 0x2C0D JUMP JUMPDEST SWAP1 POP PUSH1 0x0 DUP2 GT PUSH2 0x1F4B JUMPI PUSH1 0x40 MLOAD PUSH3 0x461BCD PUSH1 0xE5 SHL DUP2 MSTORE PUSH1 0x20 PUSH1 0x4 DUP3 ADD MSTORE PUSH1 0x9 PUSH1 0x24 DUP3 ADD MSTORE PUSH9 0x19195C1BDCDA5D0E8D PUSH1 0xBA SHL PUSH1 0x44 DUP3 ADD MSTORE PUSH1 0x64 ADD PUSH2 0x79F JUMP JUMPDEST SWAP6 POP PUSH2 0x202F SWAP2 POP POP JUMP JUMPDEST PUSH1 0x2 SLOAD PUSH1 0x1 PUSH1 0x1 PUSH1 0xA0 SHL SUB DUP5 DUP2 AND SWAP2 AND EQ ISZERO PUSH2 0xFE4 JUMPI PUSH1 0x2 SLOAD PUSH1 0x40 MLOAD PUSH4 0x23B872DD PUSH1 0xE0 SHL DUP2 MSTORE PUSH1 0x1 PUSH1 0x1 PUSH1 0xA0 SHL SUB DUP5 DUP2 AND PUSH1 0x4 DUP4 ADD MSTORE ADDRESS PUSH1 0x24 DUP4 ADD MSTORE PUSH1 0x44 DUP3 ADD DUP8 SWAP1 MSTORE SWAP1 SWAP2 AND SWAP1 PUSH4 0x23B872DD SWAP1 PUSH1 0x64 ADD PUSH1 0x20 PUSH1 0x40 MLOAD DUP1 DUP4 SUB DUP2 PUSH1 0x0 DUP8 DUP1 EXTCODESIZE ISZERO DUP1 ISZERO PUSH2 0x1FBF JUMPI PUSH1 0x0 DUP1 REVERT JUMPDEST POP GAS CALL ISZERO DUP1 ISZERO PUSH2 0x1FD3 JUMPI RETURNDATASIZE PUSH1 0x0 DUP1 RETURNDATACOPY RETURNDATASIZE PUSH1 0x0 REVERT JUMPDEST POP POP POP POP PUSH1 0x40 MLOAD RETURNDATASIZE PUSH1 0x1F NOT PUSH1 0x1F DUP3 ADD AND DUP3 ADD DUP1 PUSH1 0x40 MSTORE POP DUP2 ADD SWAP1 PUSH2 0x1FF7 SWAP2 SWAP1 PUSH2 0x27FD JUMP JUMPDEST PUSH2 0x202F JUMPI PUSH1 0x40 MLOAD PUSH3 0x461BCD PUSH1 0xE5 SHL DUP2 MSTORE PUSH1 0x20 PUSH1 0x4 DUP3 ADD MSTORE PUSH1 0x9 PUSH1 0x24 DUP3 ADD MSTORE PUSH9 0x6465706F7369743A35 PUSH1 0xB8 SHL PUSH1 0x44 DUP3 ADD MSTORE PUSH1 0x64 ADD PUSH2 0x79F JUMP JUMPDEST PUSH1 0x1 PUSH1 0x1 PUSH1 0xA0 SHL SUB DUP3 AND PUSH1 0x0 SWAP1 DUP2 MSTORE PUSH1 0x7 PUSH1 0x20 MSTORE PUSH1 0x40 SWAP1 KECCAK256 SLOAD DUP1 PUSH2 0x2061 JUMPI PUSH1 0x4 PUSH1 0x0 DUP2 SLOAD PUSH2 0x205C SWAP1 PUSH2 0x2C3B JUMP JUMPDEST SWAP1 SWAP2 SSTORE POP JUMPDEST PUSH2 0x206B DUP6 DUP3 PUSH2 0x2AAD JUMP JUMPDEST PUSH1 0x1 PUSH1 0x1 PUSH1 0xA0 SHL SUB DUP5 AND PUSH1 0x0 SWAP1 DUP2 MSTORE PUSH1 0x7 PUSH1 0x20 MSTORE PUSH1 0x40 DUP2 KECCAK256 SWAP2 SWAP1 SWAP2 SSTORE PUSH1 0x10 DUP1 SLOAD DUP8 SWAP3 SWAP1 PUSH2 0x2099 SWAP1 DUP5 SWAP1 PUSH2 0x2AAD JUMP JUMPDEST SWAP1 SWAP2 SSTORE POP POP PUSH1 0x2 SLOAD PUSH1 0x40 DUP1 MLOAD PUSH4 0xBD6D894D PUSH1 0xE0 SHL DUP2 MSTORE SWAP1 MLOAD PUSH1 0x0 SWAP3 PUSH1 0x1 PUSH1 0x1 PUSH1 0xA0 SHL SUB AND SWAP2 PUSH4 0xBD6D894D SWAP2 PUSH1 0x4 DUP1 DUP4 ADD SWAP3 PUSH1 0x20 SWAP3 SWAP2 SWAP1 DUP3 SWAP1 SUB ADD DUP2 DUP8 DUP8 DUP1 EXTCODESIZE ISZERO DUP1 ISZERO PUSH2 0x20E4 JUMPI PUSH1 0x0 DUP1 REVERT JUMPDEST POP GAS CALL ISZERO DUP1 ISZERO PUSH2 0x20F8 JUMPI RETURNDATASIZE PUSH1 0x0 DUP1 RETURNDATACOPY RETURNDATASIZE PUSH1 0x0 REVERT JUMPDEST POP POP POP POP PUSH1 0x40 MLOAD RETURNDATASIZE PUSH1 0x1F NOT PUSH1 0x1F DUP3 ADD AND DUP3 ADD DUP1 PUSH1 0x40 MSTORE POP DUP2 ADD SWAP1 PUSH2 0x211C SWAP2 SWAP1 PUSH2 0x28B7 JUMP JUMPDEST SWAP1 POP DUP4 PUSH1 0x1 PUSH1 0x1 PUSH1 0xA0 SHL SUB AND PUSH32 0x4E2CA0515ED1AEF1395F66B5303BB5D6F1BF9D61A353FA53F73F8AC9973FA9F6 DUP7 DUP6 DUP10 DUP6 PUSH1 0x40 MLOAD PUSH2 0x215D SWAP5 SWAP4 SWAP3 SWAP2 SWAP1 PUSH2 0x294C JUMP JUMPDEST PUSH1 0x40 MLOAD DUP1 SWAP2 SUB SWAP1 LOG2 POP POP POP POP POP POP JUMP JUMPDEST PUSH1 0x0 PUSH1 0x3 SLOAD NUMBER LT ISZERO PUSH2 0x217F JUMPI POP PUSH1 0x0 SWAP1 JUMP JUMPDEST PUSH1 0x6 SLOAD PUSH2 0x2289 JUMPI PUSH1 0x2 SLOAD PUSH1 0x40 DUP1 MLOAD PUSH4 0xBD6D894D PUSH1 0xE0 SHL DUP2 MSTORE SWAP1 MLOAD PUSH1 0x0 SWAP3 PUSH1 0x1 PUSH1 0x1 PUSH1 0xA0 SHL SUB AND SWAP2 PUSH4 0xBD6D894D SWAP2 PUSH1 0x4 DUP1 DUP4 ADD SWAP3 PUSH1 0x20 SWAP3 SWAP2 SWAP1 DUP3 SWAP1 SUB ADD DUP2 DUP8 DUP8 DUP1 EXTCODESIZE ISZERO DUP1 ISZERO PUSH2 0x21CC JUMPI PUSH1 0x0 DUP1 REVERT JUMPDEST POP GAS CALL ISZERO DUP1 ISZERO PUSH2 0x21E0 JUMPI RETURNDATASIZE PUSH1 0x0 DUP1 RETURNDATACOPY RETURNDATASIZE PUSH1 0x0 REVERT JUMPDEST POP POP POP POP PUSH1 0x40 MLOAD RETURNDATASIZE PUSH1 0x1F NOT PUSH1 0x1F DUP3 ADD AND DUP3 ADD DUP1 PUSH1 0x40 MSTORE POP DUP2 ADD SWAP1 PUSH2 0x2204 SWAP2 SWAP1 PUSH2 0x28B7 JUMP JUMPDEST PUSH1 0x5 DUP2 SWAP1 SSTORE NUMBER PUSH1 0x6 SSTORE SWAP1 POP DUP1 PUSH2 0x2254 JUMPI PUSH1 0x40 MLOAD PUSH3 0x461BCD PUSH1 0xE5 SHL DUP2 MSTORE PUSH1 0x20 PUSH1 0x4 DUP3 ADD MSTORE PUSH1 0x15 PUSH1 0x24 DUP3 ADD MSTORE PUSH21 0x666978696E672063616E6E6F74206265207A65726F PUSH1 0x58 SHL PUSH1 0x44 DUP3 ADD MSTORE PUSH1 0x64 ADD PUSH2 0x79F JUMP JUMPDEST PUSH1 0x40 MLOAD DUP2 DUP2 MSTORE PUSH32 0x2A45EEE61B61EF4932E2D79B32BE61A1A538CBE00381FAFFB4D1CF3B1268C46B SWAP1 PUSH1 0x20 ADD PUSH1 0x40 MLOAD DUP1 SWAP2 SUB SWAP1 LOG1 POP JUMPDEST POP PUSH1 0x1 SWAP1 JUMP JUMPDEST PUSH1 0x0 DUP4 PUSH1 0x20 ADD MLOAD PUSH1 0x0 EQ ISZERO PUSH2 0x22A6 JUMPI POP PUSH1 0x0 PUSH2 0xCE9 JUMP JUMPDEST PUSH1 0x0 DUP5 PUSH1 0x40 ADD MLOAD GT PUSH2 0x22F1 JUMPI PUSH1 0x40 MLOAD PUSH3 0x461BCD PUSH1 0xE5 SHL DUP2 MSTORE PUSH1 0x20 PUSH1 0x4 DUP3 ADD MSTORE PUSH1 0x14 PUSH1 0x24 DUP3 ADD MSTORE PUSH20 0x70726963652063616E6E6F74206265207A65726F PUSH1 0x60 SHL PUSH1 0x44 DUP3 ADD MSTORE PUSH1 0x64 ADD PUSH2 0x79F JUMP JUMPDEST PUSH1 0x0 DUP4 GT PUSH2 0x2337 JUMPI PUSH1 0x40 MLOAD PUSH3 0x461BCD PUSH1 0xE5 SHL DUP2 MSTORE PUSH1 0x20 PUSH1 0x4 DUP3 ADD MSTORE PUSH1 0x13 PUSH1 0x24 DUP3 ADD MSTORE PUSH19 0x6D61726B2063616E6E6F74206265207A65726F PUSH1 0x68 SHL PUSH1 0x44 DUP3 ADD MSTORE PUSH1 0x64 ADD PUSH2 0x79F JUMP JUMPDEST PUSH1 0x20 DUP5 ADD MLOAD DUP4 PUSH1 0x0 DUP1 DUP4 SLT PUSH2 0x234C JUMPI DUP3 PUSH2 0x2355 JUMP JUMPDEST PUSH2 0x2355 DUP4 PUSH2 0x2C56 JUMP JUMPDEST SWAP1 POP PUSH1 0x0 DUP6 PUSH1 0x14 PUSH1 0x1 PUSH2 0x2368 DUP7 DUP7 PUSH2 0x2B2C JUMP JUMPDEST PUSH2 0x2372 SWAP2 SWAP1 PUSH2 0x2B2C JUMP JUMPDEST PUSH2 0x237C SWAP2 SWAP1 PUSH2 0x2AEA JUMP JUMPDEST PUSH2 0x2386 SWAP2 SWAP1 PUSH2 0x2AEA JUMP JUMPDEST SWAP1 POP PUSH1 0x0 DUP7 DUP6 DUP6 DUP12 PUSH1 0x40 ADD MLOAD PUSH2 0x239C SWAP2 SWAP1 PUSH2 0x2BCE JUMP JUMPDEST PUSH2 0x23A6 SWAP2 SWAP1 PUSH2 0x2B2C JUMP JUMPDEST PUSH2 0x23B0 SWAP2 SWAP1 PUSH2 0x2AEA JUMP JUMPDEST SWAP1 POP PUSH2 0x23BC DUP2 DUP4 PUSH2 0x2A6C JUMP JUMPDEST SWAP2 POP PUSH1 0x0 DUP3 SLT ISZERO PUSH2 0x23CC JUMPI PUSH1 0x0 SWAP2 POP JUMPDEST POP SWAP8 SWAP7 POP POP POP POP POP POP POP JUMP JUMPDEST PUSH1 0x3 SLOAD CALLER SWAP1 NUMBER LT PUSH2 0x2419 JUMPI PUSH1 0x40 MLOAD PUSH3 0x461BCD PUSH1 0xE5 SHL DUP2 MSTORE PUSH1 0x20 PUSH1 0x4 DUP3 ADD MSTORE PUSH1 0xB PUSH1 0x24 DUP3 ADD MSTORE PUSH11 0x7061737420657870697279 PUSH1 0xA8 SHL PUSH1 0x44 DUP3 ADD MSTORE PUSH1 0x64 ADD PUSH2 0x79F JUMP JUMPDEST DUP3 PUSH1 0x0 DUP2 SGT PUSH2 0x246A JUMPI PUSH1 0x40 MLOAD PUSH3 0x461BCD PUSH1 0xE5 SHL DUP2 MSTORE PUSH1 0x20 PUSH1 0x4 DUP3 ADD MSTORE PUSH1 0x1E PUSH1 0x24 DUP3 ADD MSTORE PUSH32 0x73697A65206D7573742062652067726561746572207468616E207A65726F0000 PUSH1 0x44 DUP3 ADD MSTORE PUSH1 0x64 ADD PUSH2 0x79F JUMP JUMPDEST PUSH1 0x0 DUP4 GT PUSH2 0x248A JUMPI PUSH1 0x40 MLOAD PUSH3 0x461BCD PUSH1 0xE5 SHL DUP2 MSTORE PUSH1 0x4 ADD PUSH2 0x79F SWAP1 PUSH2 0x29FA JUMP JUMPDEST PUSH1 0x1 PUSH1 0x1 PUSH1 0xA0 SHL SUB DUP3 AND PUSH1 0x0 SWAP1 DUP2 MSTORE PUSH1 0x7 PUSH1 0x20 SWAP1 DUP2 MSTORE PUSH1 0x40 DUP1 DUP4 KECCAK256 DUP2 MLOAD PUSH1 0x60 DUP2 ADD DUP4 MSTORE DUP2 SLOAD DUP2 MSTORE PUSH1 0x1 DUP3 ADD SLOAD SWAP4 DUP2 ADD DUP5 SWAP1 MSTORE PUSH1 0x2 SWAP1 SWAP2 ADD SLOAD SWAP2 DUP2 ADD SWAP2 SWAP1 SWAP2 MSTORE SWAP2 SGT PUSH2 0x2517 JUMPI PUSH1 0x40 MLOAD PUSH3 0x461BCD PUSH1 0xE5 SHL DUP2 MSTORE PUSH1 0x20 PUSH1 0x4 DUP3 ADD MSTORE PUSH1 0x1A PUSH1 0x24 DUP3 ADD MSTORE PUSH32 0x6E6F2073686F727420706F736974696F6E20746F20636C6F7365000000000000 PUSH1 0x44 DUP3 ADD MSTORE PUSH1 0x64 ADD PUSH2 0x79F JUMP JUMPDEST PUSH1 0x0 DUP2 PUSH1 0x20 ADD MLOAD DUP4 PUSH2 0x2529 SWAP2 SWAP1 PUSH2 0x2A6C JUMP JUMPDEST SGT ISZERO PUSH2 0x2540 JUMPI DUP1 PUSH1 0x20 ADD MLOAD PUSH2 0x253D SWAP1 PUSH2 0x2C56 JUMP JUMPDEST SWAP2 POP JUMPDEST PUSH1 0xB SLOAD DUP3 GT ISZERO PUSH2 0x2592 JUMPI PUSH1 0x40 MLOAD PUSH3 0x461BCD PUSH1 0xE5 SHL DUP2 MSTORE PUSH1 0x20 PUSH1 0x4 DUP3 ADD MSTORE PUSH1 0x1B PUSH1 0x24 DUP3 ADD MSTORE PUSH32 0x696E73756666696369656E742073697A6520617661696C61626C650000000000 PUSH1 0x44 DUP3 ADD MSTORE PUSH1 0x64 ADD PUSH2 0x79F JUMP JUMPDEST PUSH1 0xA SLOAD DUP5 LT ISZERO PUSH2 0x25DE JUMPI PUSH1 0x40 MLOAD PUSH3 0x461BCD PUSH1 0xE5 SHL DUP2 MSTORE PUSH1 0x20 PUSH1 0x4 DUP3 ADD MSTORE PUSH1 0x17 PUSH1 0x24 DUP3 ADD MSTORE PUSH23 0x1B1A5B5A5D081C1C9A58D9481B9BDD081B585D18DA1959 PUSH1 0x4A SHL PUSH1 0x44 DUP3 ADD MSTORE PUSH1 0x64 ADD PUSH2 0x79F JUMP JUMPDEST PUSH1 0x2 SLOAD PUSH1 0x40 DUP1 MLOAD PUSH4 0xBD6D894D PUSH1 0xE0 SHL DUP2 MSTORE SWAP1 MLOAD PUSH1 0x0 SWAP3 PUSH1 0x1 PUSH1 0x1 PUSH1 0xA0 SHL SUB AND SWAP2 PUSH4 0xBD6D894D SWAP2 PUSH1 0x4 DUP1 DUP4 ADD SWAP3 PUSH1 0x20 SWAP3 SWAP2 SWAP1 DUP3 SWAP1 SUB ADD DUP2 DUP8 DUP8 DUP1 EXTCODESIZE ISZERO DUP1 ISZERO PUSH2 0x2624 JUMPI PUSH1 0x0 DUP1 REVERT JUMPDEST POP GAS CALL ISZERO DUP1 ISZERO PUSH2 0x2638 JUMPI RETURNDATASIZE PUSH1 0x0 DUP1 RETURNDATACOPY RETURNDATASIZE PUSH1 0x0 REVERT JUMPDEST POP POP POP POP PUSH1 0x40 MLOAD RETURNDATASIZE PUSH1 0x1F NOT PUSH1 0x1F DUP3 ADD AND DUP3 ADD DUP1 PUSH1 0x40 MSTORE POP DUP2 ADD SWAP1 PUSH2 0x265C SWAP2 SWAP1 PUSH2 0x28B7 JUMP JUMPDEST SWAP1 POP PUSH1 0x0 DUP2 DUP5 PUSH1 0xA SLOAD DUP6 PUSH1 0x40 ADD MLOAD PUSH2 0x2674 SWAP2 SWAP1 PUSH2 0x2BCE JUMP JUMPDEST PUSH2 0x267E SWAP2 SWAP1 PUSH2 0x2B2C JUMP JUMPDEST PUSH2 0x2688 SWAP2 SWAP1 PUSH2 0x2AEA JUMP JUMPDEST SWAP1 POP PUSH1 0x0 DUP2 SLT ISZERO PUSH2 0x26B3 JUMPI PUSH2 0x269C DUP2 PUSH2 0x2C56 JUMP JUMPDEST DUP4 MLOAD DUP5 SWAP1 PUSH2 0x26AB SWAP1 DUP4 SWAP1 PUSH2 0x2C0D JUMP JUMPDEST SWAP1 MSTORE POP PUSH2 0x26C9 JUMP JUMPDEST DUP1 DUP4 PUSH1 0x0 ADD DUP2 DUP2 MLOAD PUSH2 0x26C5 SWAP2 SWAP1 PUSH2 0x2AAD JUMP JUMPDEST SWAP1 MSTORE POP JUMPDEST DUP4 DUP4 PUSH1 0x20 ADD DUP2 DUP2 MLOAD PUSH2 0x26DB SWAP2 SWAP1 PUSH2 0x2A6C JUMP JUMPDEST SWAP1 MSTORE POP PUSH1 0x20 DUP4 ADD MLOAD PUSH2 0x26EF JUMPI PUSH1 0x0 PUSH1 0x40 DUP5 ADD MSTORE JUMPDEST PUSH2 0x2701 DUP4 PUSH2 0x26FB PUSH2 0xB66 JUMP JUMPDEST DUP5 PUSH2 0x228F JUMP JUMPDEST DUP4 MLOAD LT ISZERO PUSH2 0x2721 JUMPI PUSH1 0x40 MLOAD PUSH3 0x461BCD PUSH1 0xE5 SHL DUP2 MSTORE PUSH1 0x4 ADD PUSH2 0x79F SWAP1 PUSH2 0x2A3F JUMP JUMPDEST DUP1 PUSH1 0x12 PUSH1 0x0 DUP3 DUP3 SLOAD PUSH2 0x2733 SWAP2 SWAP1 PUSH2 0x2A6C JUMP JUMPDEST SWAP3 POP POP DUP2 SWAP1 SSTORE POP DUP4 PUSH1 0xB PUSH1 0x0 DUP3 DUP3 SLOAD PUSH2 0x274C SWAP2 SWAP1 PUSH2 0x2C0D JUMP JUMPDEST SWAP3 POP POP DUP2 SWAP1 SSTORE POP DUP4 PUSH1 0xE PUSH1 0x0 DUP3 DUP3 SLOAD PUSH2 0x2765 SWAP2 SWAP1 PUSH2 0x2AAD JUMP JUMPDEST SWAP1 SWAP2 SSTORE POP POP PUSH1 0xA SLOAD PUSH2 0x2777 SWAP1 DUP6 PUSH2 0x2BAF JUMP JUMPDEST PUSH1 0xF PUSH1 0x0 DUP3 DUP3 SLOAD PUSH2 0x2788 SWAP2 SWAP1 PUSH2 0x2AAD JUMP JUMPDEST SWAP1 SWAP2 SSTORE POP POP POP PUSH1 0x1 PUSH1 0x1 PUSH1 0xA0 SHL SUB SWAP1 SWAP4 AND PUSH1 0x0 SWAP1 DUP2 MSTORE PUSH1 0x7 PUSH1 0x20 SWAP1 DUP2 MSTORE PUSH1 0x40 SWAP2 DUP3 SWAP1 KECCAK256 DUP4 MLOAD DUP2 SSTORE SWAP1 DUP4 ADD MLOAD PUSH1 0x1 DUP3 ADD SSTORE SWAP2 ADD MLOAD PUSH1 0x2 SWAP1 SWAP2 ADD SSTORE POP POP POP POP JUMP JUMPDEST DUP1 CALLDATALOAD PUSH1 0x1 PUSH1 0x1 PUSH1 0xA0 SHL SUB DUP2 AND DUP2 EQ PUSH2 0x27DE JUMPI PUSH1 0x0 DUP1 REVERT JUMPDEST SWAP2 SWAP1 POP JUMP JUMPDEST PUSH1 0x0 PUSH1 0x20 DUP3 DUP5 SUB SLT ISZERO PUSH2 0x27F4 JUMPI DUP1 DUP2 REVERT JUMPDEST PUSH2 0xCE9 DUP3 PUSH2 0x27C7 JUMP JUMPDEST PUSH1 0x0 PUSH1 0x20 DUP3 DUP5 SUB SLT ISZERO PUSH2 0x280E JUMPI DUP1 DUP2 REVERT JUMPDEST DUP2 MLOAD DUP1 ISZERO ISZERO DUP2 EQ PUSH2 0xCE9 JUMPI DUP2 DUP3 REVERT JUMPDEST PUSH1 0x0 DUP1 PUSH1 0x0 DUP4 DUP6 SUB PUSH1 0xA0 DUP2 SLT ISZERO PUSH2 0x2832 JUMPI DUP3 DUP4 REVERT JUMPDEST PUSH1 0x60 DUP2 SLT ISZERO PUSH2 0x283F JUMPI DUP3 DUP4 REVERT JUMPDEST POP PUSH1 0x40 MLOAD PUSH1 0x60 DUP2 ADD DUP2 DUP2 LT PUSH8 0xFFFFFFFFFFFFFFFF DUP3 GT OR ISZERO PUSH2 0x286F JUMPI PUSH4 0x4E487B71 PUSH1 0xE0 SHL DUP5 MSTORE PUSH1 0x41 PUSH1 0x4 MSTORE PUSH1 0x24 DUP5 REVERT JUMPDEST PUSH1 0x40 SWAP1 DUP2 MSTORE DUP6 CALLDATALOAD DUP3 MSTORE PUSH1 0x20 DUP1 DUP8 ADD CALLDATALOAD SWAP1 DUP4 ADD MSTORE DUP6 DUP2 ADD CALLDATALOAD SWAP1 DUP3 ADD MSTORE SWAP6 PUSH1 0x60 DUP6 ADD CALLDATALOAD SWAP6 POP PUSH1 0x80 SWAP1 SWAP5 ADD CALLDATALOAD SWAP4 SWAP3 POP POP POP JUMP JUMPDEST PUSH1 0x0 PUSH1 0x20 DUP3 DUP5 SUB SLT ISZERO PUSH2 0x28B0 JUMPI DUP1 DUP2 REVERT JUMPDEST POP CALLDATALOAD SWAP2 SWAP1 POP JUMP JUMPDEST PUSH1 0x0 PUSH1 0x20 DUP3 DUP5 SUB SLT ISZERO PUSH2 0x28C8 JUMPI DUP1 DUP2 REVERT JUMPDEST POP MLOAD SWAP2 SWAP1 POP JUMP JUMPDEST PUSH1 0x0 DUP1 PUSH1 0x40 DUP4 DUP6 SUB SLT ISZERO PUSH2 0x28E1 JUMPI DUP2 DUP3 REVERT JUMPDEST DUP3 CALLDATALOAD SWAP2 POP PUSH2 0x28F1 PUSH1 0x20 DUP5 ADD PUSH2 0x27C7 JUMP JUMPDEST SWAP1 POP SWAP3 POP SWAP3 SWAP1 POP JUMP JUMPDEST PUSH1 0x0 DUP1 PUSH1 0x40 DUP4 DUP6 SUB SLT ISZERO PUSH2 0x290C JUMPI DUP2 DUP3 REVERT JUMPDEST POP POP DUP1 CALLDATALOAD SWAP3 PUSH1 0x20 SWAP1 SWAP2 ADD CALLDATALOAD SWAP2 POP JUMP JUMPDEST PUSH1 0x0 DUP1 PUSH1 0x0 DUP1 PUSH1 0x80 DUP6 DUP8 SUB SLT ISZERO PUSH2 0x2930 JUMPI DUP1 DUP2 REVERT JUMPDEST POP POP DUP3 CALLDATALOAD SWAP5 PUSH1 0x20 DUP5 ADD CALLDATALOAD SWAP5 POP PUSH1 0x40 DUP5 ADD CALLDATALOAD SWAP4 PUSH1 0x60 ADD CALLDATALOAD SWAP3 POP SWAP1 POP JUMP JUMPDEST PUSH1 0x1 PUSH1 0x1 PUSH1 0xA0 SHL SUB SWAP5 SWAP1 SWAP5 AND DUP5 MSTORE PUSH1 0x20 DUP5 ADD SWAP3 SWAP1 SWAP3 MSTORE PUSH1 0x40 DUP4 ADD MSTORE PUSH1 0x60 DUP3 ADD MSTORE PUSH1 0x80 ADD SWAP1 JUMP JUMPDEST PUSH1 0x0 PUSH1 0x20 DUP1 DUP4 MSTORE DUP4 MLOAD DUP1 DUP3 DUP6 ADD MSTORE DUP3 JUMPDEST DUP2 DUP2 LT ISZERO PUSH2 0x299E JUMPI DUP6 DUP2 ADD DUP4 ADD MLOAD DUP6 DUP3 ADD PUSH1 0x40 ADD MSTORE DUP3 ADD PUSH2 0x2982 JUMP JUMPDEST DUP2 DUP2 GT ISZERO PUSH2 0x29AF JUMPI DUP4 PUSH1 0x40 DUP4 DUP8 ADD ADD MSTORE JUMPDEST POP PUSH1 0x1F ADD PUSH1 0x1F NOT AND SWAP3 SWAP1 SWAP3 ADD PUSH1 0x40 ADD SWAP4 SWAP3 POP POP POP JUMP JUMPDEST PUSH1 0x20 DUP1 DUP3 MSTORE DUP2 DUP2 ADD MSTORE PUSH32 0x4F776E61626C653A2063616C6C6572206973206E6F7420746865206F776E6572 PUSH1 0x40 DUP3 ADD MSTORE PUSH1 0x60 ADD SWAP1 JUMP JUMPDEST PUSH1 0x20 DUP1 DUP3 MSTORE PUSH1 0x25 SWAP1 DUP3 ADD MSTORE PUSH32 0x6C696D6974207072696365206D7573742062652067726561746572207468616E PUSH1 0x40 DUP3 ADD MSTORE PUSH5 0x207A65726F PUSH1 0xD8 SHL PUSH1 0x60 DUP3 ADD MSTORE PUSH1 0x80 ADD SWAP1 JUMP JUMPDEST PUSH1 0x20 DUP1 DUP3 MSTORE PUSH1 0x13 SWAP1 DUP3 ADD MSTORE PUSH19 0x34B739BAB33334B1B4B2B73A1036B0B933B4B7 PUSH1 0x69 SHL PUSH1 0x40 DUP3 ADD MSTORE PUSH1 0x60 ADD SWAP1 JUMP JUMPDEST PUSH1 0x0 DUP1 DUP3 SLT DUP1 ISZERO PUSH1 0x1 PUSH1 0x1 PUSH1 0xFF SHL SUB DUP5 SWAP1 SUB DUP6 SGT AND ISZERO PUSH2 0x2A8E JUMPI PUSH2 0x2A8E PUSH2 0x2C70 JUMP JUMPDEST PUSH1 0x1 PUSH1 0xFF SHL DUP4 SWAP1 SUB DUP5 SLT DUP2 AND ISZERO PUSH2 0x2AA7 JUMPI PUSH2 0x2AA7 PUSH2 0x2C70 JUMP JUMPDEST POP POP ADD SWAP1 JUMP JUMPDEST PUSH1 0x0 DUP3 NOT DUP3 GT ISZERO PUSH2 0x2AC0 JUMPI PUSH2 0x2AC0 PUSH2 0x2C70 JUMP JUMPDEST POP ADD SWAP1 JUMP JUMPDEST PUSH1 0x0 PUSH1 0xFF DUP3 AND PUSH1 0xFF DUP5 AND DUP1 PUSH1 0xFF SUB DUP3 GT ISZERO PUSH2 0x2AE2 JUMPI PUSH2 0x2AE2 PUSH2 0x2C70 JUMP JUMPDEST ADD SWAP4 SWAP3 POP POP POP JUMP JUMPDEST PUSH1 0x0 DUP3 PUSH2 0x2AF9 JUMPI PUSH2 0x2AF9 PUSH2 0x2C86 JUMP JUMPDEST PUSH1 0x1 PUSH1 0xFF SHL DUP3 EQ PUSH1 0x0 NOT DUP5 EQ AND ISZERO PUSH2 0x2B13 JUMPI PUSH2 0x2B13 PUSH2 0x2C70 JUMP JUMPDEST POP SDIV SWAP1 JUMP JUMPDEST PUSH1 0x0 DUP3 PUSH2 0x2B27 JUMPI PUSH2 0x2B27 PUSH2 0x2C86 JUMP JUMPDEST POP DIV SWAP1 JUMP JUMPDEST PUSH1 0x0 PUSH1 0x1 PUSH1 0x1 PUSH1 0xFF SHL SUB DUP2 DUP5 SGT DUP3 DUP5 SGT DUP1 DUP3 AND DUP7 DUP5 DIV DUP7 GT AND ISZERO PUSH2 0x2B52 JUMPI PUSH2 0x2B52 PUSH2 0x2C70 JUMP JUMPDEST PUSH1 0x1 PUSH1 0xFF SHL DUP5 DUP8 SLT DUP3 DUP2 AND DUP8 DUP4 SDIV DUP10 SLT AND ISZERO PUSH2 0x2B70 JUMPI PUSH2 0x2B70 PUSH2 0x2C70 JUMP JUMPDEST DUP6 DUP8 SLT SWAP3 POP DUP8 DUP3 SDIV DUP8 SLT DUP5 DUP5 AND AND ISZERO PUSH2 0x2B8B JUMPI PUSH2 0x2B8B PUSH2 0x2C70 JUMP JUMPDEST DUP8 DUP6 SDIV DUP8 SLT DUP2 DUP5 AND AND ISZERO PUSH2 0x2BA1 JUMPI PUSH2 0x2BA1 PUSH2 0x2C70 JUMP JUMPDEST POP POP POP SWAP3 SWAP1 SWAP4 MUL SWAP4 SWAP3 POP POP POP JUMP JUMPDEST PUSH1 0x0 DUP2 PUSH1 0x0 NOT DIV DUP4 GT DUP3 ISZERO ISZERO AND ISZERO PUSH2 0x2BC9 JUMPI PUSH2 0x2BC9 PUSH2 0x2C70 JUMP JUMPDEST POP MUL SWAP1 JUMP JUMPDEST PUSH1 0x0 DUP1 DUP4 SLT DUP1 ISZERO PUSH1 0x1 PUSH1 0xFF SHL DUP6 ADD DUP5 SLT AND ISZERO PUSH2 0x2BEC JUMPI PUSH2 0x2BEC PUSH2 0x2C70 JUMP JUMPDEST PUSH1 0x1 PUSH1 0x1 PUSH1 0xFF SHL SUB DUP5 ADD DUP4 SGT DUP2 AND ISZERO PUSH2 0x2C07 JUMPI PUSH2 0x2C07 PUSH2 0x2C70 JUMP JUMPDEST POP POP SUB SWAP1 JUMP JUMPDEST PUSH1 0x0 DUP3 DUP3 LT ISZERO PUSH2 0x2C1F JUMPI PUSH2 0x2C1F PUSH2 0x2C70 JUMP JUMPDEST POP SUB SWAP1 JUMP JUMPDEST PUSH1 0x0 DUP2 PUSH2 0x2C33 JUMPI PUSH2 0x2C33 PUSH2 0x2C70 JUMP JUMPDEST POP PUSH1 0x0 NOT ADD SWAP1 JUMP JUMPDEST PUSH1 0x0 PUSH1 0x0 NOT DUP3 EQ ISZERO PUSH2 0x2C4F JUMPI PUSH2 0x2C4F PUSH2 0x2C70 JUMP JUMPDEST POP PUSH1 0x1 ADD SWAP1 JUMP JUMPDEST PUSH1 0x0 PUSH1 0x1 PUSH1 0xFF SHL DUP3 EQ ISZERO PUSH2 0x2C6C JUMPI PUSH2 0x2C6C PUSH2 0x2C70 JUMP JUMPDEST SUB SWAP1 JUMP JUMPDEST PUSH4 0x4E487B71 PUSH1 0xE0 SHL PUSH1 0x0 MSTORE PUSH1 0x11 PUSH1 0x4 MSTORE PUSH1 0x24 PUSH1 0x0 REVERT JUMPDEST PUSH4 0x4E487B71 PUSH1 0xE0 SHL PUSH1 0x0 MSTORE PUSH1 0x12 PUSH1 0x4 MSTORE PUSH1 0x24 PUSH1 0x0 REVERT INVALID LOG2 PUSH5 0x6970667358 0x22 SLT KECCAK256 LT SWAP1 0xCD 0xE3 MSTORE8 0xD5 0xAF DUP15 ISZERO 0x1E DUP1 PUSH29 0xC6F6A2AFD82B3ACDE70A5FD5ED9F19C22E6AF2F364736F6C6343000804 STOP CALLER ","sha1":"b65519a4dffd2acdfd94fa76378644f9be42a2d4","source":"// SPDX-License-Identifier: AGPL-3.0-or-later\npragma solidity ~0.8.4;\n\nimport \"OpenZeppelin/openzeppelin-contracts@4.1.0/contracts/access/Ownable.sol\";\nimport \"OpenZeppelin/openzeppelin-contracts@4.1.0/contracts/token/ERC20/IERC20.sol\";\nimport \"contracts/CompoundInterface.sol\";\n\nerror NoFallback();\nerror NoReceive();\nerror BadToken();\n\ncontract IrsAgent is Ownable {\n    event Deposit(\n        address indexed _from,\n        address _deposited_token,\n        uint _deposited_value,\n        uint _reserve_value,\n        uint _rate\n    );\n\n    event Withdrawal(\n        address indexed _from,\n        address _withdrawn_token,\n        uint _withdrawn_value,\n        uint _reserve_value,\n        uint _rate\n    );\n\n    event Settle(\n        uint _rate\n    );\n\n    struct Entry {\n\tuint balance;\n\tint size;\n\tuint price;\n    }\n\n    int constant public MARGIN_RATE_MUL = 1;\n    int constant public MARGIN_RATE_DIV = 20;\n\n    IERC20 public token;\n    CErc20 public ctoken;\n    uint public expiry_block;\n    uint public depositors;\n    uint public fixing;\n    uint public fixing_block;\n\n    mapping (address => Entry) public entries;\n\n    uint public m_bid_price;\n    uint public m_bid_size;\n    uint public m_ask_price;\n    uint public m_ask_size;\n    uint public m_pos_sold;\n    uint public m_val_sold;\n    uint public m_pos_bought;\n    uint public m_val_bought;\n    uint public m_deposited;\n    uint public m_withdrawn;\n    int public m_pnl_depositors;\n\n    constructor(CErc20 _ctoken, uint _expiry_block) {\n        require(address(_ctoken) != address(0), \"ctoken cannot be null\");\n        require(_expiry_block > block.number, \"expiry block must be in future\");\n\tIERC20 _token = IERC20(_ctoken.underlying());\n        ctoken = _ctoken;\n        token = _token;\n        expiry_block = _expiry_block;\n\n\taddress _owner = owner();\n\trequire(_token.approve(_owner, ~uint(0)), \"approve failure\");\n\trequire(_ctoken.approve(_owner, ~uint(0)), \"approve failure\");\n    }\n\n    //\n    // public state changing methods\n    //\n\n    fallback (bytes calldata /*_input*/) external payable returns (bytes memory /*_output*/) {\n        revert NoFallback();\n    }\n\n    receive() external payable {\n        revert NoReceive();\n    }\n\n    function deposit(uint amount, address token_) external {\n\treturn _deposit(amount, token_);\n    }\n\n    function withdraw(uint amount, address token_) external {\n\treturn _withdraw(amount, token_);\n    }\n\n    function withdrawWrapped(uint amount) external {\n\treturn _withdrawWrapped(amount);\n    }\n\n    function expire() external returns (bool) {\n\treturn _expire();\n    }\n\n    function openShort(uint size, uint limit) external {\n\treturn _openShort(size, limit);\n    }\n\n    function closeShort(uint size, uint limit) external {\n\treturn _closeShort(size, limit);\n    }\n\n    function settle() external {\n\treturn _settle();\n    }\n\n    function setQuote(uint bid_price, uint bid_size, uint ask_price, uint ask_size) public onlyOwner {\n\trequire(bid_size == 0 || ask_size == 0 || ask_price >= bid_price, \"ask less than bid\");\n\tif (bid_size == 0 && ask_size == 0) {\n\t    m_bid_price = m_bid_size = m_ask_price = m_ask_size = 0;\n\t    return;\n\t}\n\tuint rate = ctoken.exchangeRateCurrent();\n\tif (bid_size == 0) {\n\t    m_bid_price = m_bid_size = 0;\n\t} else {\n\t    require(bid_price >= rate, \"bid less than spot\");\n\t    m_bid_price = bid_price;\n\t    m_bid_size = bid_size;\n\t}\n\tif (ask_size == 0) {\n\t    m_ask_price = m_ask_size = 0;\n\t} else {\n\t    require(ask_price >= rate, \"ask less than spot\");\n\t    m_ask_price = ask_price;\n\t    m_ask_size = ask_size;\n\t}\n    }\n\n    function setQuoteSize(uint bid_size, uint ask_size, uint current_bid_size, uint current_ask_size) public onlyOwner {\n\tuint new_bid_size = bid_size;\n\tuint new_ask_size = ask_size;\n\n\tif (m_bid_size < current_bid_size) {\n\t    uint bid_size_reduction = current_bid_size - m_bid_size;\n\t    if (new_bid_size <= bid_size_reduction)\n\t\tnew_bid_size = 0;\n\t    else\n\t\tnew_bid_size -= bid_size_reduction;\n\t}\n\n\tif (m_ask_size < current_ask_size) {\n\t    uint ask_size_reduction = current_ask_size - m_ask_size;\n\t    if (new_ask_size <= ask_size_reduction)\n\t\tnew_ask_size = 0;\n\t    else\n\t\tnew_ask_size -= ask_size_reduction;\n\t}\n\n\tm_bid_size = new_bid_size;\n\tm_ask_size = new_ask_size;\n    }\n\n    //\n    // public read only methods\n    //\n\n    function balanceOf(address depositor) external view returns (uint) {\n        return entries[depositor].balance;\n    }\n\n    function reserves() external view returns (uint) {\n        return token.balanceOf(address(this));\n    }\n\n    function blocksToExpiry() public returns (uint) {\n\tuint expiry_block_ = expiry_block;\n\tif (block.number < expiry_block_)\n\t    return expiry_block_ - block.number;\n\telse\n\t    return 0;\n    }\n\n    function fairValue() public returns (uint) {\n\tif (fixing_block != 0 && block.number >= fixing_block)\n\t    return fixing;\n\n\tuint rate = ctoken.exchangeRateCurrent();\n\tuint blocks_to_expiry = blocksToExpiry();\n \tuint supply_rate = ctoken.supplyRatePerBlock();\n\trate += rate * supply_rate * blocks_to_expiry / 1_000_000_000_000_000_000;\n\n\treturn rate;\n    }\n\n    function bidPrice() external returns (uint) {\n\treturn m_bid_price;\n    }\n\n    function bidSize() external returns (uint) {\n\treturn m_bid_size;\n    }\n\n    function askPrice() external returns (uint) {\n\treturn m_ask_price;\n    }\n\n    function askSize() external returns (uint) {\n\treturn m_ask_size;\n    }\n\n    function fullQuote() external returns (uint, uint, uint, uint) {\n\treturn (m_bid_price, m_bid_size, m_ask_price, m_ask_size);\n    }\n\n   function requiredMargin(Entry memory entry, uint mark, uint rate) pure external returns (uint) {\n      return _requiredMargin(entry, mark, rate);\n   }\n\n    //\n    // implementation methods\n    //\n\n    function _requiredMargin(Entry memory entry, uint mark, uint rate) pure internal returns (uint) {\n\tif (entry.size == 0) return 0;\n\trequire(entry.price > 0, \"price cannot be zero\");\n\trequire(mark > 0, \"mark cannot be zero\");\n\tint size_ = entry.size;\n\tint mark_ = int(mark);\n\tint abs_size_ = size_ < 0 ? -size_ : size_;\n\tint margin = abs_size_ * mark_ * MARGIN_RATE_MUL / MARGIN_RATE_DIV / int(rate);\n\tint neg_pnl = (int(entry.price) - mark_) * size_ / int(rate);\n\tmargin += neg_pnl;\n\tif (margin < 0)\n\t    margin = 0;\n\treturn uint(margin);\n    }\n\n    function _deposit(uint amount, address _token) internal {\n        require(amount > 0, \"deposit:0\");\n        address msgSender = _msgSender();\n        uint deposit_amount = amount;\n\n        if (_token == address(token)) {\n            require(token.transferFrom(msgSender, address(this), amount), \"deposit:1\");\n            uint balance_before = ctoken.balanceOf(address(this));\n\t    require(token.approve(address(ctoken), amount), \"deposit:2\");\n\t    {\n\t        uint rc = ctoken.mint(amount);\n\t\tif (rc != 0) {\n\t\t    bytes memory text = \"deposit:3:\\x00\";\n\t\t    text[10] = bytes1(64 + (uint8(rc) & 0x1f));\n\t\t    revert(string(text));\n\t\t}\n\t    }\n            uint balance_after = ctoken.balanceOf(address(this));\n            uint minted = balance_after - balance_before;\n            require(minted > 0, \"deposit:4\");\n            amount = minted;\n        } else if (_token == address(ctoken)) {\n            require(ctoken.transferFrom(msgSender, address(this), amount), \"deposit:5\");\n        } else {\n            revert BadToken();\n        }\n\n        uint old_balance = entries[msgSender].balance;\n        if (old_balance == 0)\n            ++depositors;\n        entries[msgSender].balance = old_balance + amount;\n\tm_deposited += amount;\n\n        uint rate = ctoken.exchangeRateCurrent();\n\n        emit Deposit(msgSender, _token, deposit_amount, amount, rate);\n    }\n\n    function _openShort(uint size, uint limit) internal {\n        address msgSender = _msgSender();\n\trequire(block.number < expiry_block, \"past expiry\");\n\trequire(size > 0, \"size must be greater than zero\");\n\trequire(limit > 0, \"limit price must be greater than zero\");\n\n\tEntry memory entry = entries[msgSender];\n\trequire(entry.size == 0, \"position already open\");\n\n\trequire(size <= m_bid_size, \"insufficient size available\");\n\tentry.size = -int(size);\n\trequire(entry.size < 0, \"overflow\");\n\n\trequire(limit <= m_bid_price, \"limit price not matched\");\n\tentry.price = m_bid_price;\n\n\tuint rate = ctoken.exchangeRateCurrent();\n\trequire(entry.balance >= _requiredMargin(entry, fairValue(), rate), \"insufficient margin\");\n\n\tm_bid_size -= size;\n\tm_pos_sold += size;\n\tm_val_sold += size * m_bid_price;\n\tentries[msgSender] = entry;\n    }\n\n    function _closeShort(uint size, uint limit) internal {\n        address msgSender = _msgSender();\n\trequire(block.number < expiry_block, \"past expiry\");\n        int ssize_ = int(size);\n\trequire(ssize_ > 0, \"size must be greater than zero\");\n\trequire(limit > 0, \"limit price must be greater than zero\");\n\n\tEntry memory entry = entries[msgSender];\n\trequire(entry.size < 0, \"no short position to close\");\n\tif (ssize_ + entry.size > 0)\n\t    ssize_ = -entry.size;\n\n\trequire(uint(ssize_) <= m_ask_size, \"insufficient size available\");\n\n\trequire(limit >= m_ask_price, \"limit price not matched\");\n\n\tuint rate = ctoken.exchangeRateCurrent();\n\tint pnl = (int(entry.price) - int(m_ask_price)) * ssize_ / int(rate);\n\n\tif (pnl < 0)\n\t    entry.balance -= uint(-pnl);\n\telse\n\t    entry.balance += uint(pnl);\n\tentry.size += ssize_;\n\tif (entry.size == 0)\n\t    entry.price = 0;\n\n\trequire(entry.balance >= _requiredMargin(entry, fairValue(), rate), \"insufficient margin\");\n\n\tm_pnl_depositors += pnl;\n\tm_ask_size -= uint(ssize_);\n\tm_pos_bought += uint(ssize_);\n\tm_val_bought += uint(ssize_) * m_ask_price;\n\tentries[msgSender] = entry;\n    }\n\n    function _settle() internal {\n\trequire(fixing_block > 0);\n\trequire(fixing > 0);\n        address msgSender = _msgSender();\n\n\tEntry memory entry = entries[msgSender];\n\tif (entry.size == 0)\n\t    return;\n\n\trequire(entry.size < 0, \"no short position to settle\");\n\n\tint pnl = entry.size * int(entry.price) / int(fixing) - entry.size;\n\n\tif (pnl < 0)\n\t    entry.balance -= uint(-pnl);\n\telse\n\t    entry.balance += uint(pnl);\n\n\tm_pnl_depositors += pnl;\n\tm_ask_size -= uint(entry.size);\n\tm_pos_bought += uint(entry.size);\n\tm_val_bought += uint(entry.size) * fixing;\n\n\tentry.size = 0;\n\tentry.price = 0;\n\n\tentries[msgSender] = entry;\n    }\n\n    function _withdraw(uint amount, address _token) internal {\n        require(amount > 0);\n        address msgSender = _msgSender();\n\n        uint ctoken_balance_before = ctoken.balanceOf(address(this));\n        uint token_balance_before = token.balanceOf(address(this));\n\n        if (_token == address(token)) {\n            require(ctoken.redeemUnderlying(amount) == 0);\n        } else if (_token == address(ctoken)) {\n            require(ctoken.redeem(amount) == 0);\n        } else {\n            revert BadToken();\n        }\n\n        uint ctoken_balance_decrease = ctoken_balance_before - ctoken.balanceOf(address(this));\n        uint token_balance_increase = token.balanceOf(address(this)) - token_balance_before;\n\n\tEntry memory entry = entries[msgSender];\n        uint new_balance = entry.balance - ctoken_balance_decrease; // solidity v0.8.0+ should catch underflows\n        uint rate = ctoken.exchangeRateCurrent();\n\trequire(new_balance >= _requiredMargin(entry, fairValue(), rate), \"insufficient margin\");\n\n        require(token.transfer(msgSender, token_balance_increase), \"transfer out failed\");\n\tentries[msgSender].balance = new_balance;\n\tm_withdrawn += ctoken_balance_decrease;\n\tif (new_balance == 0)\n\t    --depositors;\n\n        emit Withdrawal(msgSender, _token, amount, ctoken_balance_decrease, rate);\n    }\n\n    function _withdrawWrapped(uint amount) internal {\n        require(amount > 0);\n        address msgSender = _msgSender();\n\tCErc20 ctoken_ = ctoken;\n        uint ctoken_balance_decrease = amount;\n\n\tEntry memory entry = entries[msgSender];\n        uint new_balance = entry.balance - ctoken_balance_decrease; // solidity v0.8.0+ should catch underflows\n        uint rate = ctoken_.exchangeRateCurrent();\n\trequire(new_balance >= _requiredMargin(entry, fairValue(), rate), \"insufficient margin\");\n\n        require(token.transfer(msgSender, ctoken_balance_decrease), \"transfer out failed\");\n\tentries[msgSender].balance = new_balance;\n\tm_withdrawn += ctoken_balance_decrease;\n\tif (new_balance == 0)\n\t    --depositors;\n\n        emit Withdrawal(msgSender, address(ctoken_), amount, ctoken_balance_decrease, rate);\n    }\n\n    function _expire() internal returns (bool) {\n\tif (block.number < expiry_block)\n\t    return false;\n\n\tif (fixing_block == 0) {\n\t    uint rate = ctoken.exchangeRateCurrent();\n\t    fixing = rate;\n\t    fixing_block = block.number;\n\t    require(rate > 0, \"fixing cannot be zero\");\n\t    emit Settle(rate);\n\t}\n\n\treturn true;\n    }\n}\n","sourcePath":"contracts/IrsAgent.sol","type":"contract"}